:400000000080002011000000050400000504000008B5044B1A6803F53F5302331A6000F0F9F900BFFA46004010B5054C237833B9044B13B10448AFF300800123237010BD73
:400040004081FF1F0000000028090000084B10B51BB108490848AFF300800848036803B910BD074B002BFBD0BDE81040184700BF000000004481FF1F28090000C880FF1FB0
:400080000000000008B562B600F094FA002000F0F3FB012000F00EFB012000F017FB012000F020FB012000F029FB032000F03AFB00F0A6FB00F0BAFA084800F0DBFA05209A
:4000C00000F002FA202000F0BFFA052000F0FCF900F0CCFB024800F0BBFBFEE72C0900004D01000038B50346002506E0154A82FB0312DB17C3EBA2030135002BF6D16A1EEB
:400100000EE0104B83FB0031C317C3EBA1031C4603EB83035900431A0B498B542046013A002AEEDA002409E0074B185D3030C0B200F08AFA052000F0C7F90134A542F3DC6F
:4001400038BD00BF676666666481FF1F10B500F0F5FA044600F00AFB201A0C4B1860FFF7C1FF052000F0B0F9094800F083FA052000F0AAF900F044FB012000F07DFB05207C
:4001800000F0A2F9002000F077FB10BD5C81FF1F38090000FEE700BFF0B40022174611E050F82760F3B226F0FF0608E001EB420511F812406D78A5550132013BDBB2002B66
:4001C000F4D101371A2FEBD9F0BC7047064B1B78DBB203F00701054A11701B09013213704422034B1A707047CF0100496E5800407658004008B50A46002100F08CFB08BDF0
:4002000008B500F07DFB08BD38B501222C4B1A801C2202331A704FF49C7202331A801823284A137040F2CF710232118002321370042225492548FFF7E3FF0222244B1A7082
:4002400008224FF040231A70032103F500731970204B1B78DBB220490B70204B1A8041F25122023B1A80002419250CE01C4B1B7803F0010343EA440404F003044FF4F070CD
:4002800000F002FB013D0DB1032CEFD115B90320FFF780FF134B4FF480721A8007221A70002211490A704820023108701A700222033B1A700D4A137843F00703137038BD0A
:4002C0008040004086400040D8050048004100400043004008010049A146004022420040254200400440004006400040A243004038B572B600240CE0324D630019194A0059
:4003000011462A44084691882858FFF773FF0134E4B2082CF0D900240CE02A48A20011194B000344B3F84020D96B986BFFF768FF0134E4B2012CF0D923494FF09040FFF720
:400340002BFF224A137843F0020313701032137843F0020313701E4C237843F040032370A2F58632513A137843F0100313700A2218491948FFF744FF0A2218491848FFF7D3
:400380003FFF082217491848FFF73AFF0A2217491748FFF735FF174A137843F008031370154D61232B70FFF72FFF81232B700122124B1A70FFF70AFF0E2221461048FFF752
:4003C0001FFF38BD3C0900006C00004803500140A0430040AC05004800510040B8050048C0510040C405004812510040CC0500482051004022430040004800400400084063
:40040000B043004008B500F04FFA03680C2B00D1FEE7FEE708B5104E104D16E029686B68AC68002204E051F8040B43F8040B0432A242F8D1E868002203E0002143F8041B15
:4004400004328242F9D11035013E002EE6D100F031FAFFF717FEFEE701000000B009000008B5104A104B1A60104A136843F40073136000230AE0032B03D80D4A52F82310C2
:4004800000E00C490C4A42F8231001332F2BF2D90A4B1A780A4B1A70074A0A4B1A60FFF727FF08BD0004FA050CED00E014ED00E000000000050400000080FF1FBC7600404E
:4004C000C080FF1F08ED00E010B5044605E0084B186800F0D9F9A4F50044B4F5004FF6D8034B586800FB04F000F0CEF910BD00BFCC80FF1F084A137843F00103137010321A
:40050000137843F00103137002F64D32137843F001031370704700BFA3430040014B1880704700BF044F0040014B1880704700BF064F0040014B1870704700BF034F004066
:4005400008B5194A137843F0020313700232137803F08F0343F010031370144B1A7802F0CF021A701A7842F030021A701A7802F0F0021A701A7842F00F021A707F20FFF756
:40058000CDFF7F20FFF7D0FF0020FFF7D3FF084A137843F00103137002F65E32137843F00103137008BD00BF004F00400B4F0040A343004008B5054B1B7823B9FFF7C0FFBB
:4005C0000122024B1A70FFF795FF08BD6081FF1F7222074B1A702022033B1A7006225F3B1A70472210331A70002251331A7070478B65004010B500F04FF904460A4A13787A
:4006000043F020031370033A137843F0100313700232137843F01003137000F03DF8204600F03EF910BD00BF9B65004008B5054B1B7823B9FFF7CCFF0122024B1A70FFF71D
:40064000D9FF08BD6181FF1F024B1B780BB1024B187070476181FF1F49640040034B1B7813F0040FFAD1024B187070476A6500404964004038B5074B1B782BB938BDFFF7DD
:40068000EDFF0134A4B201E005460024285D0028F5D138BD6181FF1F054A137843F0020313701032137843F002031370704700BFA2430040044A137803F07F03C001C0B2D2
:4006C00018431070704700BF00510040044A137803F0BF03800100F0400018431070704700510040044A137803F0DF03400100F0200018431070704700510040044A1378BB
:4007000003F0EF03000100F0100018431070704700510040024A137843F080031370704777640040014B1870704700BF87640040014B1878704700BF67640040014B188810
:4007400080B270474C680040014B1880704700BF4C680040014B188880B270478C680040014B1880704700BF0C680040024B1B78024B188880B27047066400408C680040A3
:40078000024A137843F01003137070477764004000F00300044B1A7802F0FC021A701A7810431870704700BF7764004008B501E0FFF7D0FFFFF7BCFF10F0080FF8D108BDC2
:4007C00008B54FF6FF70FFF7BFFF4FF6FF70FFF7C7FF00F061F8094A137843F01003137000F05EF8FFF7CCFF0020FFF7D1FFFFF7DDFF0220FFF796FF08BD00BF9764004049
:4008000008B5054B1B7823B9FFF7DAFF0122024B1A70FFF77FFF08BD6381FF1F014B1B681864704708ED00E04001C0B2014B1870704700BF00E400E00122014B1A60704700
:4008400000E100E00122014B1A60704780E100E010B50446FFF7F6FF2046FFF7DFFF0720FFF7E2FFFFF7E8FF10BD00BF0122014B1A60704780E200E0014B1870704700BF0F
:4008800076640040000000000230800803D000BF01380046FCD17047EFF3108072B6704780F31088704700BF014B1868704700BF3C81FF1F0E4B70B51E460E4C0025E41A81
:4008C000A410A54204D056F8253098470135F8E700F05CF8084B094C1E46E41AA4100025A54204D056F8253098470135F8E770BD980900009809000098090000A0090000C0
:4009000010B5431E0A44914204D011F8014B03F8014FF8E710BD03460244934202D003F8011BFAE770470000000000005374617274205541525400000A000000004F004068
:400940000C00305100404000F05100401000000001400010001401408006001B0140000100400140000A004C01400002005001402000000060520040240500480600801A82
:4009800001402C050048800043000000F8B500BFF8BC08BC9E4670474D00000061040000F8B500BFF8BC08BC9E46704729000000C0090000C880FF1F780000003800000002
:4009C000000000000000E02EC05D00001800000000366E0100000000000000000000000000000000000000000000000000000000000000008809000000000000000000007E
:400A000000000000000000000000000000000000000000000000000000000000000000000000000000000000000000000000000000000000DC80FF1F00000000000000003C
:400A40000000000000000000000000000000000000000000000000000000000000000000000000000000000000000000000000000000000000000000000000000000000076
:400A80000000000000000000000000000000000000000000000000000000000000000000000000000000000000000000000000000000000000000000000000000000000036
:400AC00000000000000000000000000000000000000000000000000000000000000000000000000000000000000000000000000000000000000000000000000000000000F6
:400B000000000000000000000000000000000000000000000000000000000000000000000000000000000000000000000000000000000000000000000000000000000000B5
:020000040003F7
:0200000480007A
:40000000024F004002520040016400400365004002050140570601403F070140550801403B090140040A0140030B014007170140571801404A190140141A0140451B01405D
:4000400002400140034101400642014005430140024501400146014002470140024C0140074D0140055001400151014001200A4B10021102870F88388A0F8B728504E40289
:4000800006010F0124012A01310136013E4040324104420149FF4AFF4BFF4F015018580459045A045B045F016040624064406540668068806A806C806E80813E82028401AA
:4000C00086048C0F8F389138920893049508970399209B429D109F42A20FA37BA404A601AE0FAF7BB003B106B338B501B60CB740BF50C026C104C201C5ECC620C80BC9FF47
:40010000CAFFCBFFCD83CE03CF01D018D293D403D604D804D904DA04DB04DF05E040E240E440E540E680E880EA80EC80EE80010603010620080110801108134015041720C0
:4001400019421D802004224523282740280129402A0231203205334038023B403F4040044180430145A0470949054B2051205310581059055A80638069106A406C016D4092
:400180006F017080720273407940834089108E409104C02DC208C46DCA09CC0FCE19D0FDD204D60FD801DE08E004EE08050F060F072009050E0F100F13191403160C170F7D
:4001C00018051A0A1B0E2003220C23032405260A2B0F2C0F2D062F103320340F371F3B80580459045F01810F84DC8622870F8A038B0F8C108D608EAC900C91029271930140
:400200009409950796D097109A209B189D60A014A304A720A810A940AA40AD01AF02B0E0B160B41FB51FB902BA02BB20BF01C053C101C6EBC70CC81CC9FFCAFFCBFFCEF052
:40024000CF44D00CD804D904DA04DC01DD01DF01E6C0EA40EB0200400120032004080602071008200AA00D210E201080120414011620170119201A801F1021222220260805
:400280002711282029542A012C012D102F8431283240334136283701384839123B403C083E20402043404B40509889408A108B808E219102A004AF20C0A7C27EC4BACABF15
:4002C000CCEFCE6FD00AD208E084E440B820BE10D804DF011F2084048501AC10AE04B301B504B620EC08EE02010402630318043C050206420701080809100B040F201103EF
:400300001404150319081A041B041C101F20207F2467251C26182818291C2C1C2D022E612F013058311C3302341F35203638370139803A223F145418580459045B045C11AF
:400340005D105F0184AC86438A088C318EC69031924E9301968CA653A830A902AA40AF01B0F0B302B40FB501BA22BB02BF14C004C704C9FFCA07CBFFCC40CD20CEF0CF05F0
:40038000D008D804D904DA04DC11DD01DF01E040E1A8E240E3200040020403200404050106080AA00C800D200E20102815421714184019101B201C041D401E041F012101E8
:4003C000220A2304241025112601270129202B012D542F01330134803540361237043C203D023E043F8041024820490452045C01668067048E0890209280944096209920B8
:400400009D149E04A008A102A720AE02AF14B001B108B710C077C2ECC4F6CA7CCCF1CEF0D001D680D830EC20EE40060509010C051005240226042A04300432033301380854
:400440003E013F045401580459045B045C015D105F010040032005040A800E201028132015541A601C201D271E801F042204240127442C802E042F053641371438203A2074
:400480003C023E083F40450247444E024F6057415A495B205C106D5474807608771088018A319070928493029401951496209D019E089F14A028A203A330A490A520A610C3
:4004C000A741B480B510B680B710C025C228C4E6CAF0CCF0CED4D0D0D230D62F3080CC100608A480C080630286089A08A480D640E4408080A480AF01E220EE105D80D6046A
:400500009D8081809D808C02E402104074028840A002C408DE04E20100030A010C0310021C0200038080000040000000001100800804040000000000003F00000033004068
:400540000433090C000C000000000033000800000E0C00330E220080020F003002C00C00010F003000000020000000013405060001000CE024FFFFFF62A0F0410C000000EF
:400580000000021104040404111100010000000000004002001030100010101200000000000000000000000000000000080000F8F000000000000000800040808000800001
:4005C00000000000000303000000000004000006020002000000000001001401000000000000000000000000000000000000000000000000000000000000000000000000D1
:4006000000000000000000000000000000000000000000000000000000000000000000000000000000000000000000000000000000000000000000000000000000000000BA
:40064000000000000000000000000000000000000000000000000000000000000000000000000000000000000000000000000000000000000000000000000000000000007A
:40068000000000000000000000000000000000000000000000000000000000000000000000000000000000000000000000000000000000000000000000000000000000003A
:4006C00000000000000000000000000000000000000000000000000000000000000000000000000000000000000000000000000000000000000000000000000000000000FA
:0200000490006A
:0400000000004005B7
:0200000490105A
:04000000BC90ACAF55
:0200000490303A
:02000000FC7A88
:0200000490402A
:4000000000000000000000000000000000000000000000000000000000000000000000000000000000000000000000000000000000000000000000000000000000000000C0
:400040000000000000000000000000000000000000000000000000000000000000000000000000000000000000000000000000000000000000000000000000000000000080
:400080000000000000000000000000000000000000000000000000000000000000000000000000000000000000000000000000000000000000000000000000000000000040
:4000C0000000000000000000000000000000000000000000000000000000000000000000000000000000000000000000000000000000000000000000000000000000000000
:0200000490501A
:0C00000000012E16106900012E1B0CE3FD
:00000001FF