:4000000000800020110000001D0800001D08000008B5044B1A6803F53F5302331A6000F01DFC00BFFA46004010B5054C237833B9044B13B10448AFF300800123237010BD14
:40004000A881FF1F00000000A8430000084B10B51BB108490848AFF300800848036803B910BD074B002BFBD0BDE81040184700BF00000000AC81FF1FA8430000C880FF1F6C
:40008000000000002DE9F84304460846114601F019FE05466061D4F82080216801F01CFF0746E6683146606801F016FF0146384601F00AFE0746D4F808902169284601F0B3
:4000C00001FE0146484601F007FF0146384601F0FBFD0746404601F0ABFE394601F0FCFE02F0C0F8A06125613146284601F0ECFDE060BDE8F88300BFF8B5044617460568E0
:400100008668C06801F0E8FE0146304601F0DCFD06463946206901F0DFFE0146304601F0D3FD0146284601F0D7FE6060F8BD00BF70B516461D464468886901F079FE2146AC
:4001400001F0C2FD02F08EF804460028D4BF0020012000F0F5FDE00F00F0FEFD84EAE470A0EBE47080B200F0EDFB7468A86901F05FFE214601F0A8FD02F074F804460028A2
:40018000D4BF0020012000F0F3FDE00F00F0FCFD84EAE470A0EBE47080B200F041FC70BD2DE9F04F8FB007460D9108929B46189EB04D296801F090FE0446204601F02AFA04
:4001C00000F0A2FF01F02AFD80460B906C68AA49204601F081FE02F045F80A90AD682946404602F021F860B1A24B1968404601F027FF0146099001F067FD054600230C931C
:400200001BE09C4B1968284601F01AFF804609902946384601F014FF414601F053FD05464146404601F050FD0146284601F04CFD0546414601F046FD0C902146284601F0DE
:40024000FFFE02F00FF88146002700230024CDE90434CDE90234CDE90034DDF834A0F3E0844B586801F0D6F902460B46DDE9000101F024FA04460D4600F038FCCBF82400AD
:4002800000F0D2FC7062099801F0C4F902460B46CDE906232046294601F082FC70B1754B186801F0B7F902460B46CDE904232046294601F003FACDE9020179E06D4BD3F8D3
:4002C000088041460B9801F0AFFF28B30B9801F0A1F9CDE90201674BD3F80080DDE906232046294601F036F804460D46404601F091F922462B4601F0E1F902460B46DDE96A
:40030000020101F027F8CDE9020108F1004001F081F9CDE904014BE0DDE906232046294601F052FC98B10C9801F074F902460B462046294601F03EFC48B1404601F06AF9AD
:40034000CDE9020100230024CDE9043430E00C9801F060F9CDE9060102460B462046294601F03CFC20B3404601F054F9CDE90201DDE906232046294600F0ECFF04460D46B1
:400380003C4BD3F80080404601F044F922462B4601F094F902460B46DDE9020100F0DAFFCDE9020108F1004001F034F9CDE90401DDE9020101F032FC0446DBF82400DBF86E
:4003C0002830DBF81C50C01A01F032FD294601F083FD024621465846FFF754FE706AB36AF569C01A01F024FD294601F075FD024621463046FFF746FEDDE9040101F00EFCBF
:400400000546024621465046FFF776FE2A462146089C2046FFF770FE3346224659465046FFF786FEDBF82430CBF82830736AB3620022124BDDE9000100F08EFFCDE900013F
:400440000A9800F0A3FD013709F102039F42FFF607AF00230D984360089A53600023CBF81830B36133465946FFF762FE0FB0BDE8F08F00BFCC80FF1F00007A440000F03F1E
:400480002DE9F04383B08046894616461F460A9C0B9D002101F0DCFE08B1012301E04FF0FF3323620021484601F0D2FE08B1012301E04FF0FF332B62206A01F0B9FC306090
:4004C000286A01F0B5FC386000236362A3626B62AB62009523463A4631464046FFF760FE03B0BDE8F08300BF38B504460B4D69684FF07E5001F0A4FDE061EB6823602B6966
:400500006360696901F0E8FCA0600023E360012222620022A262236138BD00BFCC80FF1F034B9A698260DA69C2601B6A03617047CC80FF1FF8B507460E4615461C4600F0DF
:4005400027FB00F0C3FB00F043FA00F0AFFA3846FFF7CAFF3046FFF7C7FF2846FFF7E0FF2046FFF7DDFF002000F0D6FA002000F071FBF8BD30B5A9B062B600F079FD1548D1
:4005800000F090FD12AD1DAC08AB0DAA29462046FFF7D0FF0195009408AB0DAA00210E48FFF76EFF00F0A2FA02460C4903A802F02FFB03A800F076FD00F036FB024608490C
:4005C00003A802F025FB03A800F06CFD642000F0DDFCFEE7B043000000003F47BC430000CC430000FEE700BFF0B40022174611E050F82760F3B226F0FF0608E001EB42051F
:4006000011F812406D78A5550132013BDBB2002BF4D10137242FEBD9F0BC7047064B1B78DBB203F00701054A11701B09013213704422034B1A707047CF0100496E580040B8
:400640007658004008B50A46002101F068FE08BD38B51722264B1A801823264A1370332102321180023213700222234B1A7008224FF040231A70032103F5007319701F4BFF
:400680001B78DBB21E490B701E4B1A8041F25122023B1A80002419250CE01B4B1B7803F0010343EA440404F003044FF4F07000F01BFD013D0DB1032CEFD115B90320FFF78D
:4006C00091FF124B4FF480721A8007221A7000220F490A704820023108701A700222033B1A700C4A137843F00303137038BD00BF80400040824000400043004008010049E6
:40070000A146004022420040254200400440004006400040A243004008B501F0F5FD08BD38B572B62C4A137843F00403137000240CE02A4D630019194A0011462A44084667
:4007400091882858FFF77EFF0134E4B2082CF0D923494FF09040FFF747FF224A224B1A60224A137843F0020313701032137843F0020313701E4C237843F040032370A2F5BC
:400780008632513A137843F0100313700A2219491948FFF7C1FF082218491948FFF7BCFF082218491848FFF7B7FF184A137843F008031370164D61232B70FFF749FF8123B7
:4007C0002B700122134B1A70FFF728FF0E2221461148FFF7A1FF38BDE8460040DC4300009400004804040444D80C014003500140A0430040A4090048C0510040B0090048DF
:4008000012510040B809004822510040224300400048004004000840B043004008B501F047FD03680C2B00D1FEE7FEE708B5094B1A681044084BC31AB3F5007F02DC054B12
:40084000186005E001F034FD0C2303604FF0FF32104608BDF480FF1FE881FF1F08B5104E104D16E029686B68AC68002204E051F8040B43F8040B0432A242F8D1E8680022E0
:4008800003E0002143F8041B04328242F9D11035013E002EE6D101F011FDFFF76BFEFEE701000000A045000008B5104A104B1A60104A136843F40073136000230AE0032B6B
:4008C00003D80D4A52F8231000E00C490C4A42F8231001332F2BF2D90A4B1A780A4B1A70074A0A4B1A60FFF71BFF08BD0004FA050CED00E014ED00E0000000001D0800005B
:400900000080FF1FBC760040C080FF1F08ED00E0084A137843F0010313701032137843F00103137002F64D32137843F001031370704700BFA3430040014B1880704700BFA4
:40094000044F0040014B1880704700BF064F0040014B1870704700BF034F004008B5194A137843F0020313700232137803F08F0343F010031370144B1A7802F0CF021A7068
:400980001A7842F030021A701A7802F0F0021A701A7842F00F021A7046F2A810FFF7CCFF0020FFF7CFFF0020FFF7D2FF074A137843F00103137002F65E32137843F00103FC
:4009C000137008BD004F00400B4F0040A343004008B5054B1B7823B9FFF7C0FF0122024B1A70FFF795FF08BDC481FF1F084A137843F0020313701032137843F00203137063
:400A000002F65932137843F001031370704700BFA3430040014B1880704700BF104F0040014B1880704700BF124F0040014B1870704700BF0F4F004008B5194A137843F098
:400A4000020313700232137803F08F0343F010031370144B1A7802F0CF021A701A7842F030021A701A7802F0F0021A701A7842F00F021A7046F2A810FFF7CCFF0020FFF7FD
:400A8000CFFF0020FFF7D2FF074A137843F00203137002F66A32137843F00103137008BD0C4F0040174F0040A343004008B5054B1B7823B9FFF7C0FF0122024B1A70FFF7C4
:400AC00095FF08BDC581FF1F08B50122054B1A600549002000F070FA0721002000F080FA08BD00BF80E100E0C50B000010B50124064B1C6000F06EF9A0F5004000B2044B9C
:400B00001B68044A1460184410BD00BF80E100E0C881FF1F00E100E038B505460124054B1C604FF4004000F04FF9034B1D60034B1C6038BD80E100E0C881FF1F00E100E048
:400B4000024B187800F00F00704700BF6F64004040F00700014B1870704700BF8F64004008B50F20FFF7F4FFFFF7EAFF00F0C4FA054A137843F01003137000F0C1FA012289
:400B8000024B1A6008BD00BF9F64004000E100E008B500F071F94FF4004000F015F90022064B1A60064B1B7823B9FFF78DFF0122034B1A70FFF7D4FF08BD00BFC881FF1F70
:400BC000C681FF1F0D4B1B78DBB213F0010F06D00B490A6802F5FF427F320A6007E013F0020F04D006490A68A2F500420A6013F0040F02D00022024B1A6070476F640040A8
:400C0000C881FF1F08B50222054B1A600549012000F0D2F90721012000F0E2F908BD00BF80E100E0010D000010B50224064B1C6000F04AF9A0F5004000B2044B1B68044AFF
:400C40001460184410BD00BF80E100E0D081FF1F00E100E038B505460224054B1C604FF4004000F02BF9034B1D60034B1C6038BD80E100E0D081FF1F00E100E0024B18780E
:400C800000F00F00704700BF6664004040F00700014B1870704700BF8664004008B50F20FFF7F4FFFFF7EAFF00F026FA054A137843F01003137000F023FA0222024B1A60AB
:400CC00008BD00BF9664004000E100E008B500F04DF94FF4004000F0F1F80022064B1A60064B1B7823B9FFF78DFF0122034B1A70FFF7D4FF08BD00BFD081FF1FCC81FF1FD5
:400D00000D4B1B78DBB213F0010F06D00B490A6802F5FF427F320A6007E013F0020F04D006490A68A2F500420A6013F0040F02D00022024B1A60704766640040D081FF1F65
:400D4000044A137803F0F703C00000F0080018431070704720510040044A137803F0EF03000100F0100018431070704720510040044A137803F0EF03000100F01000184396
:400D80001070704710510040044A137803F0FB03800000F0040018431070704710510040024A137843F08003137070477D640040014B1870704700BF8D640040014B1878AB
:400DC000704700BF6D640040014B1880704700BF18680040024B1B78024B188880B270470C64004098680040014B188880B2704798680040014B1880704700BF586800403D
:400E0000014B1880704700BF7868004008B501E0FFF7EAFFFFF7D2FF10F0400FF8D108BD08B5134B1A7802F0F8021A701A7802F0FC021A70FFF7EAFF4FF40040FFF7DAFFB7
:400E40004FF40040FFF7C0FF0020FFF7B1FFFFF7B5FF4FF40040FFF7D3FF00F04DF9054A137843F01003137000F04AF908BD00BF7D6400409D64004008B5054B1B7823B911
:400E8000FFF7CEFF0122024B1A70FFF789FF08BDD481FF1F024A137843F080031370704777640040014B1870704700BF87640040014B1878704700BF67640040014B188027
:400EC000704700BF0C680040024B1B78024B188880B27047066400408C680040014B188880B270478C680040014B1880704700BF4C680040014B1880704700BF6C6800406F
:400F000008B501E0FFF7EAFFFFF7D2FF10F0400FF8D108BD08B5134B1A7802F0F8021A701A7802F0FC021A70FFF7EAFF4FF40040FFF7DAFF4FF40040FFF7C0FF0020FFF7E2
:400F4000B1FFFFF7B5FF4FF40040FFF7D3FF00F0D3F8054A137843F01003137000F0D0F808BD00BF776400409764004008B5054B1B7823B9FFF7CEFF0122024B1A70FFF7AD
:400F800089FF08BDD581FF1F01BE704710B5044605E0084B186800F0A7F8A4F50044B4F5004FF6D8034B586800FB04F000F09CF810BD00BFF880FF1F70B504460E46074B49
:400FC0001D681F2802D90020FFF7DEFF04F01F04103455F8240045F8246070BD08ED00E038B504460D46072902D90020FFF7CCFF1F2C02D90020FFF7C7FF04F01F0000F14C
:40100000604000F564406D01EDB2057038BD00BF7222084B1A702022A3F201131A700622603B1A70472210331A70002251331A70704700BF8A65004010B500F05DF80446AF
:401040000A4A137843F020031370A2F20112137843F0100313700132137843F01003137000F032F8204600F04BF810BD9A65004008B5054B1B7823B9FFF7CAFF0122024BCC
:401080001A70FFF7D9FF08BDD681FF1F034B1B7813F0040FFAD1024B187070476A6400404A64004038B5074B1B782BB938BDFFF7EDFF0134A4B201E005460024285D00283F
:4010C000F5D138BDD681FF1F054A137843F0020313701032137843F002031370704700BFA2430040000000000230800803D000BF01380046FCD17047EFF3108072B6704768
:4011000080F31088704700BF2DE9F04F8BB004460D4600F055F8284B064693F900A00F46BAF1FF3F12D022462B462046294600F05FFD834650B94FF000084FF000092046F8
:40114000294642464B4600F02BFD20B9304639460BB0BDE8F08F194A0123CDF820B0CDE90445CDE9024501920093BAF1000F15D042464B464046494600F0CAFBBAF1020FA6
:40118000CDE906010CD101F093F821230360089B63B9DDE906010BB0BDE8F08FCDE90689684600F0D1F80028F1D1ECE701F080F8089B0360EDE700BF0881FF1F144400009D
:4011C0002DE9F0415F4E0C46B6460E407645054600F0988000290B46024674DD5FEA215E7FD0AEF2FF3EC3F313031EF0010F43F4801363D100273E4603EBD2710B444FEAFE
:401200006E0E520016204FF4001174189C424FEAD2754FEA420202DC1B1B66180F44013805EB43034FEA5101EFD1844620244FF0004109E020D003EBD275013C4FEA5101EC
:401240002B444FEA420220D09E4201EB0C05F1DA002D05EB010C09DBB0469542A3EB060300D9013B4646521B0844E4E7BCF1000FF2DB06F10108F0E7954217D8002D05EB10
:40128000010C49DB98460023ECE7134310D140087B1003F17F5303F50013FA0703EB0E57394648BF40F00040BDE8F0813346C2E7411C35D000F001031844E8E75B0003EB02
:4012C000D273520096E721F000460643ECD079BB8E46D30AAEF1150E5205002BF9D0DD0221D4002100E001465B00DC0201F10100F9D5C0F1200422FA04F42343C1EB0E0E5F
:4013000082406EE702460B4600F0D8F92A46234600F022F8BDE8F081BCF1000FA9DAB1E701372046B4E720244FF0FF310020E2E702460B4600F00EF802460B4600F0E8FA9D
:40134000B2E700BF0000F07F0020704781F0004102E000BF83F0004330B54FEA41044FEA430594EA050F08BF90EA020F1FBF54EA000C55EA020C7FEA645C7FEA655C00F046
:40138000E2804FEA5454D4EB5555B8BF6D420CDD2C4480EA020281EA030382EA000083EA010180EA020281EA0303362D88BF30BD11F0004F4FEA01314FF4801C4CEA1131C0
:4013C00002D0404261EB410113F0004F4FEA03334CEA133302D0524263EB430394EA050F00F0A780A4F10104D5F1200E0DDB02FA0EFC22FA05F2801841F1000103FA0EF2D4
:40140000801843FA05F359410EE0A5F120050EF1200E012A03FA0EFC28BF4CF0020C43FA05F3C01851EBE37101F0004507D54FF0000EDCF1000C7EEB00006EEB0101B1F5CD
:40144000801F1BD3B1F5001F0CD349085FEA30004FEA3C0C04F101044FEA445212F5800F80F09A80BCF1004F08BF5FEA500C50F1000041EB045141EA050130BD5FEA4C0C1E
:40148000404141EB010111F4801FA4F10104E9D191F0000F04BF01460020B1FA81F308BF2033A3F10B03B3F120020CDA0C3208DD02F1140CC2F10C0201FA0CF021FA02F148
:4014C0000CE002F11402D8BFC2F1200C01FA02F120FA0CFCDCBF41EA0C019040E41AA2BF01EB0451294330BD6FEA04041F3C1CDA0C340EDC04F11404C4F1200220FA04F007
:4015000001FA02F340EA030021FA04F345EA030130BDC4F10C04C4F1200220FA02F001FA04F340EA0300294630BD21FA04F0294630BD94F0000F83F4801306BF81F4801166
:401540000134013D4EE77FEA645C18BF7FEA655C29D094EA050F08BF90EA020F05D054EA000C04BF1946104630BD91EA030F1EBF0021002030BD5FEA545C05D14000494107
:4015800028BF41F0004130BD14F580043CBF01F5801130BD01F0004545F0FE4141F470014FF0000030BD7FEA645C1ABF194610467FEA655C1CBF0B46024650EA013406BFE4
:4015C00052EA033591EA030F41F4002130BD00BF90F0000F04BF0021704730B54FF4806404F132044FF000054FF0000150E700BF90F0000F04BF0021704730B54FF48064D7
:4016000004F1320410F0004548BF40424FF000013EE700BF42004FEAE2014FEA31014FEA02701FBF12F07F4393F07F4F81F06051704792F0000F14BF93F07F4F704730B5FC
:401640004FF4607401F0004521F0004120E700BF50EA010208BF704730B54FF000050AE050EA010208BF704730B511F0004502D5404261EB41014FF4806404F132045FEACF
:40168000915C3FF4DCAE4FF003025FEADC0C18BF03325FEADC0C18BF033202EBDC02C2F1200300FA03FC20FA02F001FA03FE40EA0E0021FA02F11444C1E600BF70B54FF0B8
:4016C000FF0C4CF4E06C1CEA11541DBF1CEA135594EA0C0F95EA0C0F00F0DEF82C4481EA030621EA4C5123EA4C5350EA013518BF52EA033541F4801143F4801338D0A0FB7F
:4017000002CE4FF00005E1FB02E506F00042E0FB03E54FF00006E1FB03569CF0000F18BF4EF0010EA4F1FF04B6F5007F64F5407404D25FEA4E0E6D4146EB060642EAC62156
:4017400041EA55514FEAC52040EA5E504FEACE2EB4F1FD0C88BFBCF5E06F1ED8BEF1004F08BF5FEA500E50F1000041EB045170BD06F0004646EA010140EA020081EA03011E
:40178000B4EB5C04C2BFD4EB0C0541EA045170BD41F480114FF0000E013C00F3AB8014F1360FDEBF002001F0004170BDC4F10004203C35DA0C341BDC04F11404C4F1200516
:4017C00000FA05F320FA04F001FA05F240EA020001F0004221F0004110EBD37021FA04F642EB06015EEA430E08BF20EAD37070BDC4F10C04C4F1200500FA04F320FA05F046
:4018000001FA04F240EA020001F0004110EBD37041F100015EEA430E08BF20EAD37070BDC4F1200500FA05F24EEA020E20FA04F301FA05F243EA020321FA04F001F0004185
:4018400021FA04F220EA020000EBD3705EEA430E08BF20EAD37070BD94F0000F0FD101F00046400041EB010111F4801F08BF013CF7D041EA060195F0000F18BF704703F075
:401880000046520043EB030313F4801F08BF013DF7D043EA0603704794EA0C0F0CEA135518BF95EA0C0F0CD050EA410618BF52EA4306D1D181EA030101F000414FF000005A
:4018C00070BD50EA410606BF1046194652EA430619D094EA0C0F02D150EA013613D195EA0C0F05D152EA03361CBF104619460AD181EA030101F0004141F0FE4141F470018A
:401900004FF0000070BD41F0FE4141F4780170BD70B54FF0FF0C4CF4E06C1CEA11541DBF1CEA135594EA0C0F95EA0C0F00F0A7F8A4EB050481EA030E52EA03354FEA01318B
:4019400000F088804FEA03334FF0805545EA131343EA12634FEA022245EA111545EA10654FEA00260EF000419D4208BF964244F1FD0404F5407402D25B084FEA3202B61A2C
:4019800065EB03055B084FEA32024FF480104FF4002CB6EB020E75EB030E22BFB61A754640EA0C005B084FEA3202B6EB020E75EB030E22BFB61A754640EA5C005B084FEA79
:4019C0003202B6EB020E75EB030E22BFB61A754640EA9C005B084FEA3202B6EB020E75EB030E22BFB61A754640EADC0055EA060E18D04FEA051545EA16754FEA06164FEA25
:401A0000C30343EA52734FEAC2025FEA1C1CC0D111F4801F0BD141EA00014FF000004FF0004CB6E711F4801F04BF01430020B4F1FD0C88BFBCF5E06F3FF6AFAEB5EB030CCB
:401A400004BFB6EB020C5FEA500C50F1000041EB045170BD0EF0004E4EEA113114EB5C04C2BFD4EB0C0541EA045170BD41F480114FF0000E013C90E645EA060E8DE60CEACB
:401A8000135594EA0C0F08BF95EA0C0F3FF43BAF94EA0C0F0AD150EA01347FF434AF95EA0C0F7FF425AF104619462CE795EA0C0F06D152EA03353FF4FDAE1046194622E744
:401AC00050EA410618BF52EA43067FF4C5AE50EA41047FF40DAF52EA43057FF4EBAE12E74FF0FF3C06E000BF4FF0010C02E000BF4FF0010C4DF804CD4FEA410C7FEA6C5CC7
:401B00004FEA430C18BF7FEA6C5C1BD001B050EA410C0CBF52EA430C91EA030F02BF90EA020F0020704710F1000F91EA030F58BF994208BF90422CBFD8176FEAE37040F00E
:401B4000010070474FEA410C7FEA6C5C02D150EA013C07D14FEA430C7FEA6C5CD6D152EA033CD3D05DF8040B704700BF8446104662468C461946634600E000BF01B5FFF78F
:401B8000B7FF002848BF10F1000F01BD4DF808EDFFF7F4FF0CBF012000205DF808FB00BF4DF808EDFFF7EAFF34BF012000205DF808FB00BF4DF808EDFFF7E0FF94BF012045
:401BC00000205DF808FB00BF4DF808EDFFF7CEFF94BF012000205DF808FB00BF4DF808EDFFF7C4FF34BF012000205DF808FB00BF4FEA410C7FEA6C5C02D150EA013C0AD1EC
:401C00004FEA430C7FEA6C5C02D152EA033C02D14FF0000070474FF0010070474FEA4102B2F1E04324BFB3F5001CDCF1FE5C0DD901F0004C4FEAC0024CEA5070B2F1004FC7
:401C400040EB830008BF20F00100704711F0804F21D113F13872BCBF01F00040704741F480114FEA5252C2F11802C2F1200C10FA0CF320FA02F018BF40F001004FEAC123CB
:401C80004FEAD32303FA0CFC40EA0C0023FA02F34FEA4303CCE77FEA625307D150EA01331EBF4FF0FE4040F44000704701F0004040F0FE4040F40000704700BF80F0004094
:401CC00002E000BF81F0004142001FBF5FEA410392EA030F7FEA226C7FEA236C6AD04FEA1262D2EB1363C1BFD218414048404140B8BF5B42192B88BF704710F0004F40F480
:401D0000000020F07F4018BF404211F0004F41F4000121F07F4118BF494292EA030F3FD0A2F1010241FA03FC10EB0C00C3F1200301FA03F100F0004302D5494260EB400068
:401D4000B0F5000F13D3B0F1807F06D340084FEA310102F10102FE2A51D2B1F1004F40EBC25008BF20F0010040EA03007047490040EB000010F4000FA2F10102EDD1B0FAED
:401D800080FCACF1080CB2EB0C0200FA0CF0AABF00EBC25052421843BCBFD0401843704792F0000F81F4000106BF80F400000132013BB5E74FEA41037FEA226C18BF7FEA64
:401DC000236C21D092EA030F04D092F0000F08BF0846704790EA010F1CBF0020704712F07F4F04D1400028BF40F00040704712F100723CBF00F50000704700F0004343F0F3
:401E0000FE4040F4000070477FEA226216BF08467FEA23630146420206BF5FEA412390EA010F40F4800070474FF0000304E000BF10F0004348BF40425FEA000C08BF704704
:401E400043F0964301464FF000001CE050EA010208BF70474FF000030AE000BF50EA010208BF704711F0004302D5404261EB41015FEA010C02BF84460146002043F0B643D4
:401E800008BFA3F18053A3F50003BCFA8CF2083AA3EBC25310DB01FA02FC634400FA02FCC2F12002BCF1004F20FA02F243EB020008BF20F00100704702F1200201FA02FC11
:401EC000C2F1200250EA4C0021FA02F243EB020008BF20EADC7070474FF0FF0C1CEAD0521EBF1CEAD15392EA0C0F93EA0C0F6FD01A4480EA010C400218BF5FEA41211ED006
:401F00004FF0006343EA501043EA5111A0FB01310CF00040B1F5000F3EBF490041EAD3715B0040EA010062F17F02FD2A1DD8B3F1004F40EBC25008BF20F00100704790F0BB
:401F4000000F0CF0004C08BF49024CEA502040EA51207F3AC2BFD2F1FF0340EAC250704740F400004FF00003013A5DDC12F1190FDCBF00F000407047C2F10002410021FA1D
:401F800002F1C2F1200200FA02FC5FEA310040F1000053EA4C0308BF20EADC70704792F0000F00F0004C02BF400010F4000F013AF9D040EA0C0093F0000F01F0004C02BFAB
:401FC000490011F4000F013BF9D041EA0C018FE70CEAD15392EA0C0F18BF93EA0C0F0AD030F0004C18BF31F0004CD8D180EA010000F00040704790F0000F17BF90F0004FF8
:40200000084691F0000F91F0004F14D092EA0C0F01D142020FD193EA0C0F03D14B0218BF084608D180EA010000F0004040F0FE4040F40000704740F0FE4040F4400070473D
:402040004FF0FF0C1CEAD0521EBF1CEAD15392EA0C0F93EA0C0F69D0A2EB030280EA010C49024FEA402037D04FF0805343EA111143EA10130CF000408B4238BF5B0042F14C
:402080007D024FF4000C8B4224BF5B1A40EA0C00B3EB510F24BFA3EB510340EA5C00B3EB910F24BFA3EB910340EA9C00B3EBD10F24BFA3EBD10340EADC001B0118BF5FEAA0
:4020C0001C1CE0D1FD2A3FF650AF8B4240EBC25008BF20F0010070470CF0004C4CEA50207F32C2BFD2F1FF0340EAC250704740F400004FF00003013A37E792F0000F00F0DB
:40210000004C02BF400010F4000F013AF9D040EA0C0093F0000F01F0004C02BF490011F4000F013BF9D041EA0C0195E70CEAD15392EA0C0F08D142027FF47DAF93EA0C0F5A
:402140007FF470AF084676E793EA0C0F04D14B023FF44CAF08466EE730F0004C18BF31F0004CCAD130F000427FF45CAF31F000437FF43CAF5FE700BF4FF0FF3C06E000BF86
:402180004FF0010C02E000BF4FF0010C4DF804CD4FEA40024FEA41037FEA226C18BF7FEA236C11D001B052EA530C18BF90EA010F58BFB2EB030088BFC81738BF6FEAE17006
:4021C00018BF40F0010070477FEA226C02D15FEA402C05D17FEA236CE4D15FEA412CE1D05DF8040B704700BF844608466146FFE70FB5FFF7C9FF002848BF10F1000F0FBDAB
:402200004DF808EDFFF7F4FF0CBF012000205DF808FB00BF4DF808EDFFF7EAFF34BF012000205DF808FB00BF4DF808EDFFF7E0FF94BF012000205DF808FB00BF4DF808ED00
:40224000FFF7D2FF94BF012000205DF808FB00BF4DF808EDFFF7C8FF34BF012000205DF808FB00BF4FEA4002B2F1FE4F0FD34FF09E03B3EB12620DD94FEA002343F00043B3
:4022800010F0004F23FA02F018BF404270474FF00000704712F1610F01D1420205D110F0004008BF6FF0004070474FF000007047014B1868704700BF6C81FF1F0E4B70B53D
:4022C0001E460E4C0025E41AA410A54204D056F8253098470135F8E702F050F9084B094C1E46E41AA4100025A54204D056F8253098470135F8E770BD8845000088450000C0
:40230000884500009045000010B5431E0A44914204D011F8014B03F8014FF8E710BD03460244934202D003F8011BFAE770472DE9F04788B0149F002B1E461299B8BF03F1D2
:40234000004327F02007B6BF1E4600232D23462F1446109DDDF84CA00B7003D0452F03D1013501E0032300E0022307AA049206AA03928DE828042246334600F001FD472F09
:40238000804602D1119BDB0728D5462F08EB050911D198F80030302B0AD10022002320463146FFF7F3FB18B9C5F10105CAF80050DAF8003099440022002320463146FFF70F
:4023C000E5FB08B9302202E0CDF81C9006E0079B994503D9591C07911A70F8E74046079B159AC8EB0303136008B0BDE8F087034673B50029B8BF494203F8022BB4BF2D2282
:402400002B22092942701ADD0DF1070216460A2591FBF5F405FB1411092C01F1300102F8011D2146F4DC3031541E02F8011CB4421A460AD214F8012B03F8012BF7E71A46E8
:402440003024214402F8024B5970101A02B070BD2DE9F04F91B00C46DDF8688016461F46054601F025FA03681846099300F0F4FB00230E93D8F800300A90073323F00703D0
:4024800003F1080294F81890D4F800B0C8F80020D3E90023C4E91223D4F84CA0D4F848802AF000430B934FF0FF32A74B40460B99FFF79EFBA0B94FF0FF32A34B40460B998A
:4024C000FFF778FB60B90022002340465146FFF767FB10B12D2384F843309C4B9C4A0AE04246534640465146FFF782FB002800F09281984B984AB9F1470F8CBF9046984649
:40250000032323612BF0040323604FF0000A3DE0B9F1670F00F08A81B9F1470F00F0868123600193636800210DF13302059002920093424653460691CDF81090CDF80CE014
:402540002846FFF7F4FE09F0DF03472B804600F08481B9F1650F0D9900F28D8101394A4604F150000D91FFF742FF0E9A82468318012A236100F37C812268D10700F178815F
:402580009DF8333013B12D2384F84330009733460FAA2146284600F09FF9013002D14FF0FF3096E123685A0501D4236965E0B9F1650F40F2D580D4E9120100220023FFF7D1
:4025C000E5FA78B30123654A31462846B8470130E5D00E9B0D9A9A420BDB2368D80708D423689B0740F111814FF0000804F1190906E10A9B099A31462846B8470130CED0AC
:402600004FF0000804F11A090E9B013B9845E7DA01234A4631462846B8470130BFD008F10108F1E70D9B002B29DC01234B4A31462846B8470130B2D00D9B23B90E9B13B965
:402640002368D907CCD50A9B099A31462846B8470130A4D04FF0000904F11A0A0D9B5B42994509DA0123524631462846B847013095D009F10109F1E70E9B4246A7E00E9AA4
:40268000A36D9A42A8BF1A46002A914606DC4FF0000A29EAE97904F11A0B11E01346314642462846B8470130F1D178E701235A4631462846B84701303FF471AF0AF1010A72
:4026C000A36DC9EB03029245F0DB08EB03090D9A0E9B9A420FDB2368DA070CD40E9B0D9A9844C9EB08089B1A9845A8BF9846B8F1000F08DC0FE00A9B099A31462846B84790
:402700000130EBD14BE743464A4631462846B84701303FF444AF4FF0000928EAE87804F11A0A09E00123524631462846B84701303FF435AF09F101090D9A0E9B9B1AC8EBC6
:4027400003039945EEDB4BE7FFFFEF7F1E44000022440000264400002A4400002E4400000E9A012A01DCDB0738D50123424631462846B84701303FF412AF0A9B099A3146E9
:402780002846B84701303FF40AAFD4E9120100220023FFF7FBF920B14FF0000804F11A090EE00E9B08F10102013B19E001234A4631462846B84701303FF4F1AE08F10108FB
:4027C0000E9B013B9845F1DB534604F1500231462846B84701307FF403AFE0E64246012331462846B8470130EED1D8E601234A4631462846B84701303FF4D1AE08F10108B0
:40280000E3680F9A9B1A9845F0DBE0680F9B9842B8BF18465DE062680EA8531C0DF1340E4BF480637FF474AE062201E012B90122626075E6002106910DF133018DE80C0004
:40284000236005904246CDF81090CDF80CE0029153462846FFF76BFD80460D9BD81C02DB626893421DDDA9F102095FFA89F970E60133236184E6B9F1660F14D100296368E2
:4028800007DD216113B92268D2071DD501330B4419E013B92268D00701D5023313E0012311E04FF067090D9B0E9A934205DB22682361D10708D5013305E0002BD4BFC3F1D3
:4028C00002030123134423610D9B4FF0000AA36556E611B0BDE8F08F2DE9F04791461F460A698B6806469342B8BF1346C9F8003091F843200C46DDF8208012B10133C9F87E
:4029000000302368990642BFD9F800300233C9F80030256815F0060510D104F1190A07E00123524639463046C04701301AD00135E368D9F800209B1A9D42F1DB94F84330F4
:402940002268003318BF012392060FD5E118302081F843005A1C94F845102244023382F8431003E04FF0FF30BDE8F08704F1430239463046C0470130F4D02268D9F800501C
:40298000E36802F00602042A08BF5D1B2269A3680CBF25EAE57500259342C4BF9B1AED184FF000091A344D4509D00123224639463046C0470130D5D009F10109F3E7002007
:4029C000BDE8F0872DE9F04317460A7E85B06E2A984606460C460C9B01F1430E00F0AE8011D8632A22D009D8002A00F0BB80582A40F0CA8081F84520834955E0642A1ED047
:402A0000692A1CD0C0E0732A00F0B08009D86F2A2ED0702A40F0B8800A6842F020020A603EE0752A24D0782A3AD0ADE01A6801F14205111D1960136884F84230A8E021684A
:402A40001A6811F0800F02D0111D196008E011F0400F02F10401196002D0B2F9003000E01368002B3CDA2D225B4284F8432037E021681A6811F0800F02D0111D196007E0FC
:402A800011F0400F02F10401196001D0138800E01368227E5C496F2A14BF0A2208221BE078225A4984F845202268186812F0800F00F104051D6003D1550601D5038800E0EC
:402AC0000368D00744BF42F0200222601BB9226822F0200222601022002084F8430001E049490A226568002DA56008DB206820F0040020602BB9002D7DD175460CE0002BC8
:402B000079D07546B3FBF2F002FB1033CB5C05F8013D03460028F5D1082A0BD12368DA0708D5236962689A42DEBF302305F8013C05F1FF35C5EB0E0323612EE008681A6806
:402B400010F0800F496903D0101D1860136808E010F0400F02F104001860136801D0198000E0196000232361754616E01A68111D1960156800216268284600F0A5FE08B19A
:402B8000401B6060636804E004F1420584F8422001232361002384F84330CDF800803B4603AA21463046FFF797FE013002D14FF0FF3026E023692A4639463046C0470130FB
:402BC000F5D023689B0710D5002504F1190907E001234A4639463046C0470130E7D00135E368039A9B1A9D42F2DBE068039B9842B8BF184605E00B7804F1420584F842309D
:402C00008AE705B0BDE8F08330440000414400000EB400B54FF402719CB0ADF814106FF00041049107914FF6FF711DAB02900690084853F8042BADF81610006802A901936D
:402C400001F038FA029B00221A701CB05DF804EB03B070476C81FF1F034613F8012B002AFBD1181A013870472DE9F74F03690C6980469C427FDC013C01F114074FEA840E7A
:402C800000F1140606EB0E0357F82450019356F824300135B3FBF5F507EB0E09C5B34FF0000A3846B446D34650F8043B9AB205FB02A21B0C4FEA124A05FB03A392B2C2EB1B
:402CC0000B0BBCF800204FEA134A5A441FFA83FBDCF800308145CBEB134303EB224392B242EA03424FEA234B4CF8042BDCD256F80E306BB9019B043B9E421A4602D3C8F819
:402D0000104005E01268043B002AF8D1013CF3E7404600F0F4FF00282BDB304601354FF0000E57F8042B036891B2C1EB0E0E120C99B27144C2EB134303EB214389B24FEA30
:402D4000234EB94541EA034340F8043BE9D256F8242006EB840362B9043B9E421A4602D3C8F8104005E01268043B002AF8D1013CF3E7284600E0002003B0BDE8F08F0000CB
:402D80002DE9F04F456A95B08246219CCDE9022345B9102000F090FDCAF82400456085600560C560DAF82430196859B15A68012393404A608B60504600F0C9FDDAF8243054
:402DC00000221A60039BA04A002BBDBF01232360039B0023BCBF23F000430393DDF80C80A8BF236028F000431B0D1B0593421DD142F20F73209A1360029B43B9934A944B50
:402E0000C8F31300002814BF1846104600E09048229B002B00F04685C37813B100F1080300E0C31C229A136000F03CBDDDE902450022002320462946FEF7A8FE074658B1D0
:402E4000209A01231360229B002B00F01E8581481860013800F026BD12AB019313AB009322462B46504600F0C5FFC8F30A56049056B1C5F3130343F07F51204641F4401101
:402E8000A6F2FF3611971DE0139B129E1E4406F23243202B0ADD029A06F21240C3F1400322FA00F008FA03F3184304E0C3F12000029B03FA00F0FEF78BFB0123A1F1F87129
:402EC000013E11930022644BFEF744FA58A3D3E90023FEF7F3FB58A3D3E90023FEF73CFA044630460D46FEF783FB55A3D3E90023FEF7E4FB02460B4620462946FEF72CFA6F
:402F000004460D4601F028FA00228346002320462946FEF745FE58B15846FEF769FB02460B4620462946FEF731FE08B90BF1FF3BBBF1160F0DD8DDE90223484901EBCB0153
:402F4000D1E90001FEF74AFE30B10BF1FF3B002300E00123109300E01090129B9E1B731E079343BFC3F10008002307934FF00008BBF1000F06DB079BCDF82CB05B4407938D
:402F8000002705E00023CBEB0808CBF100070B931E9B092B28D8052BC4BF043B1E931E9BC8BF0025A3F10203D8BF0125032B20D8DFE803F0060E0204012302E0012308E064
:402FC00000230A931F9B002B1DDD9946059321E000230A931F9B0BEB030909F10103012B0593B8BF012315E0012500231E930A9501E001230A934FF0FF390022CDF81490AF
:4030000012231F9206E04FF001094B46CDF81490CDF87C90DAF8244000226260042101F114029A421CD86268490001326260F6E761436F63A787D23FB3C8608B288AC63FE2
:40304000FB799F501344D33F0000F07F524400005B4400002F4400000000F83F684400006168504600F03EFCDAF8243020601B680693059B0E2B00F25B81002D00F05881A2
:40308000DDE90234BBF1000FCDE90E3430DD9F4A0BF00F034FEA2B1502EBC303E80618CBCDE908340CD5DDE90E01994B05F00F05D3E90823FEF72CFC0324CDE9020100E008
:4030C0000224934E6DB1E90708D5DDE90801D6E90023FEF7F3FACDE9080101346D100836F0E7DDE90823DDE90201FEF711FC20E0CBF1000505B3DDE90E01844B05F00F02E6
:4031000003EBC203D3E90023FEF7D8FACDE902017F4E2D110023022455B1EA0705D5D6E90023FEF7CBFA013401236D100836F3E71BB1CDE9020100E00224109BE3B1DDE93E
:4031400002560022734B28463146FEF729FD98B1059B8BB1B9F1000F40F3E6800BF1FF330893314600226C4B2846FEF7A7FA0134CDE902014E4602E0059ECDF820B0204681
:40318000FEF736FADDE90223FEF798FA634B0022FEF7E2F8A1F1507304460C931D46D6B9DDE9020100225E4BFEF7D4F822460C9BCDE90201FEF712FD002840F03F820C99CA
:4031C000224601F10043DDE90201FEF7E9FC002840F02B82A8E00A9A4C4B711E002A49D003EBC103D3E9002300204E49FEF790FB22462B46FEF7AEF8CDE90C01069CDDE98E
:40320000020101F0A9F80546FEF7F2F902460B46DDE90201FEF79EF8DDE90C23303504F8015BCDE90201FEF7BBFC002840F01D83DDE9022300203749FEF78CF8DDE90C23D9
:40324000FEF7AEFC002840F0D180069BE31AB3426ADADDE90C0100222F4BFEF72FFA0022CDE90C01DDE902012B4BFEF727FACDE90201C4E703EBC1012246D1E900012B46C0
:40328000FEF71CFA069BCDE90C011D469C19DDE9020101F061F80646FEF7AAF902460B46DDE90201FEF756F8303605F8016BAC42CDE902014FF0000222D11A4BDDE90C0109
:4032C000FEF74AF802460B46DDE90201FEF786FC002840F08B80DDE90C2300201149FEF739F802460B46DDE90201FEF759FCD8B114F8013C621E302B40F0B7821446F7E7CC
:40330000054BFEF7DBF9CDE90201C0E768440000404500000000F03F0000244000001C40000014400000E03FDDE90E34CDE90234139B002B7CDBBBF10E0F79DCAB4B03EB5B
:40334000CB03D3E900671F9B002B14DA059B002B11DC40F06C810022A54B30463946FEF7ADF9DDE90223FEF72FFC059D2E46002840F05F8165E1069CDDE9028932463B4687
:4033800040464946FEF7C4FA00F0E6FF0546FEF72FF932463B46FEF791F90B46024649464046FDF7D7FF05F1300E069B04F801EBC3EB040E059B73452DD102460B46FDF7B8
:4033C000CBFF8046894602460B4630463946FEF7E7FB78B942464B4630463946FEF7D6FB002800F04482EB0704D440E2DDF820B000E01C4614F8012C631E392A07D1069ABE
:403400009A42F6D1069930220BF1010B0A701A7801321A702BE20022764BFEF74FF90022002380468946FEF7B1FB0028A6D01EE20A9A002A2BD01E9A012A0ADC119A12B1E1
:4034400003F2334302E0129BC3F136033D46444613E0059B5D1EAF42BFBF0B9BEA1B9B180B93059BB6BF2F467D1B0025002BA7BF4446059BC3EB08040023079A01211A44DF
:4034800050469844079200F001FB064602E03D4644460A9E5CB1079B002B08DDA342A8BF2346079AC3EB0808E41AD31A0793002F1DDD0A9BABB18DB131462A46504600F005
:4034C0007FFB049A01460646504600F0E8FA04990890504600F03BFA089B04937A1B06D000E03A460499504600F06AFB04900121504600F0CBFA0B9B05465BB31A46014695
:40350000504600F05DFB1E9B0546012B18DC029B83B9039BC3F3130373B9039B23F000473F0D3F054FB1079B08F1010801330793012702E0002700E0029F0B9B73B100E0C4
:4035400000272B6905EB8303186900F052FAC0F1200004E01E9B012BD9DD0B9F0120079B184410F01F0008D0C0F12003042B02DDC0F11C0002E006D018461C30079B8044D6
:40358000034404440793B8F1000F05DD42460499504600F063FB0490079B002B05DD29461A46504600F05AFB0546109B23B32946049800F0A4FB00281EDA00230A220499E0
:4035C000504600F0DBF90A9B0BF1FF3B0490002B00F05F81314600230A22504600F0CEF9B9F1000F06463FDC3BE000BF684400000000144000002440059B002B2BDC1E9B0B
:40360000022B28DDDDF81490B9F1000F11D129464B460522504600F0B1F901460546049800F06DFB00280CDC03E0354600E000252E461F9B069C6FEA030B09E03546DDF884
:4036400020B0069B069A5C1C312313700BF1010B05960026F7E00A9BDDF8149023B9069CB2E01E9B022BCFDC002C05DD31462246504600F0F3FA06469FB17168504600F030
:4036800031F90446326906F10C01023292000C30FEF73AFE01222146504600F0DFFA059000E00596029B069F03F00103079329460498FFF7D9FA3146044600F130080498A2
:4036C00000F01DFB059A02902946504600F033FBC36802463BB901460A90049800F00FFB0A9A034600E00123114650460A9300F02EF90A9B53B91E9A42B9079A32B9B8F165
:40370000390F2AD0029B002B1CDC1DE0029A002A04DB1BD11E9ACAB9079ABAB9002B13DD01220499504600F099FA2946049000F0E6FA002803DC07D118F0010F04D0B8F16F
:40374000390F0AD004F131087C1C0CE0002B07F101040BDDB8F1390F03D139233B70013756E008F1010887F800806CE0069B2746E31A4B4504F8018C3BD000230A220499C3
:40378000504600F0FBF8059B04909E424FF00A024FF000033146504604D100F0EFF80646059084E700F0EAF8002306460A220599504600F0E3F8059079E700230A2204999D
:4037C000504600F0DBF8049029460498FFF74CFA069B00F1300804F8018BE31A4B45ECDB069B0596B9F1010FACBF4B4401331F46002601220499504600F030FA29460490CD
:4038000000F07DFA002803DC15D118F0010F12D03C4614F8013C621E392B09D1069B934204D10BF1010B3123069A02E01446F0E70133137007E03C4614F8013C621E302B13
:4038400001D11446F8E72946504600F080F8059B6BB12EB19E4203D03146504600F077F80599504600F073F801E0DDF820B00499504600F06CF80023209A23700BF101030A
:403880001360229B1BB11C6001E008480AE0069808E0B9F1000F3FF7E2AE1E9B022B7FF7DEAEB1E615B0BDE8F08F00BF2E440000004870477081FF1F024B0146186800F0C5
:4038C00041BB00BF6C81FF1F10B5C9B202449042034605D01C7801308C42F8D1184610BD002010BD70B5456A04460E463DB91020FFF7E2FF6062456085600560C560656A04
:40390000EB6843B1636ADB6853F8260078B1026843F8262017E021220421204600F0B8FA636AE860DB68002BECD1002070BD012101FA06F56A1D9200204600F0A9FA002865
:40394000F3D04660856000230361C36070BD70B5446A06460D463CB91020FFF7ADFF7062446084600460C4603DB1736A6A68DB6853F82210296043F8225070BD2DE9F04100
:4039800006460C460D691F4601F1140E0023DEF80000013381B202FB0171000C0F0C02FB007089B201EB00419D424FEA10474EF8041BECDCD7B1A3689D4212DB6168304675
:4039C0000131FFF78FFF8046226904F10C01023292000C30FEF798FC21463046FFF7B7FF444604EB850301355F6125612046BDE8F081030C1B0413B90004102300E000237D
:403A000010F07F4F04BF0002083310F0704F04BF0001043310F0404F04BF80000233002803DB420003D5581C70471846704720207047036813F007020BD0D90722D49A07D7
:403A40004BBF5B089B08036003604CBF01200220704799B209B91B0C102213F0FF0F04BF1B0A0832190704BF1B090432990704BF9B080232D90702D45B0805D001320360D7
:403A800010467047002070472020704710B50C460121FFF727FF01224461026110BD2DE9F74F14460A69236988469A42BEBF0B46A0461C46D8F81070D4F81090D8F80830A5
:403AC000D8F8041007EB09069E42C8BF0131FFF709FF00F114052B4605EB860C0022634502D243F8042BFAE704F1140208F1140102EB890301EB87070093009B01929342C2
:403B000057D9B2F800B0BBF1000F23D08946AE464FF0000859F8044BBEF800A0A3B20BFB03A34FEA144ADEF8004043444FEA14480BFB0A84F24604EB13449BB243EA0443B0
:403B40004F454FEA14484AF8043B01D9D646E1E7CEF80480019B0432B3F802A0BAF1000F21D02C4689462B684FF00008B9F800E0B4F802B09BB20AFB0EBEA346F04443EA57
:403B800008434BF8043B59F8043BB4F804E01B0C0AFB03E34F4503EB18434FEA134801D95C46E3E763600435A7E75CF8043D13B9013E002EF9DC066103B0BDE8F08F0000E4
:403BC0002DE9F843154612F0030206460F4607D0214C013A002354F82220FFF7CFFE0746AD1036D0746A3CB91020FFF765FE7062446084600460C460D6F82480D8F80840A6
:403C00004CB940F271213046FFF740FF04460023C8F8080003604FF00008EB070AD5394622463046FFF73BFF814639463046FFF78EFE4F466D100CD0206808B10446ECE749
:403C4000224621463046FFF72AFF2060C0F80080F4E73846BDE8F883304500002DE9F0470C460746914626694FEA621A56444968A368751CAB4202DA01315B00FAE7384697
:403C8000FFF730FE002380461A4600F11401534503DA41F823200133F9E72AEAEA73206901EB830319F01F0904F1140101EB800E14D0C9F1200C002208689A4600FA09F03C
:403CC000024343F8042B51F8042B8E4522FA0CF2F2D8CAF8042042B1B51C06E0043B51F8042B8E4543F8042FF9D8013D3846C8F810502146FFF72BFE4046BDE8F08703691D
:403D00000A6910B59B1A11D192001430143183180A4453F8044D52F8041D8C4202D007D3012010BD9842F4D3002010BD184610BD4FF0FF3010BD2DE9F8430C460746114606
:403D400020461546FFF7DBFF061E08D131463846FFF7C8FD012303614661BDE8F883BCBF23462C4638466168BABF1D4601260026FFF7B8FD2B69C660266905F1140904F1F4
:403D8000140101EB860709EB830800F114054FF0000C51F8042B59F8044B93B29C44A3B2240CC3EB0C03C4EB124202EB23429BB24FEA224CC84543EA02428E4645F8042B1B
:403DC000E7D8BE450ED25EF8041B8AB26244131403EB114392B242EA03424FEA234C45F8042BEEE755F8043D0BB9013EFAE70661BDE8F8832DE9F3411C4601219046089E80
:403E0000099DFFF76FFDC4F31302C4F30A5407460CB142F480120192B8F1000F19D002A840F8088DFFF705FE009B48B1019AC0F1200102FA01F10B43C2407B61019200E095
:403E40007B61019B002B14BF02210121BB61396107E001A8FFF7EDFD019B01217B613961203034B1A4F2334404443460C0F1350009E0A0F2324007EB810330601869FFF7BF
:403E8000B8FDC0EB41102860384602B0BDE8F08138B502FB01F4214600F054F8054618B122460021FEF73BFA284638BD38B50546002944D051F8043C0C1F002BB8BFE41810
:403EC00000F017FA1E4A1368114613B96360146030E0A3420DD92268A018834201BF18685B681218226063600C6023E0A24203D813465A68002AF9D118681918A1420BD183
:403F00002168014458188242196013D110685268014419605A600DE002D90C232B6009E021686018824201BF106852680918216062605C602846BDE8384000F0DBB938BD32
:403F4000DC81FF1F70B5CD1C25F0030508350C2D38BF0C25002D064601DBA94202D90C23336046E000F0C5F9234B1C681A462146A1B10B685B1B0ED40B2B03D90B60CC1815
:403F8000CD501EE08C420BBF63684B681360636018BF0C4615E00C464968E9E7174C23681BB9304600F07AF920602946304600F075F9431C18D0C41C24F00304A0420DD149
:403FC0002560304600F096F904F10B00231D20F00700C31A0ED05A42E25070BD211A304600F05CF90130EBD10C233360304600F081F9002070BD00BFDC81FF1FD881FF1FB7
:404000002DE9F0478E6882469E420C46914698463ED88A8912F4906F3AD02568096902236F1A656905EB450595FBF3F57B1C43449D4238BF1D4653050FD52946FFF782FFB0
:40404000064698B13A462169FEF75EF9A38923F4906343F08003A38113E02A4600F04BF9064670B921695046FFF720FF0C23CAF80030A3894FF0FF3043F04003A381BDE80A
:40408000F08726613E44266046466561ED1BA560464528BF464649463246206800F00EF9A36800209B1BA36023681E442660BDE8F08700002DE9F04F9DB003938B89804692
:4040C0001C060D4616460DD50B695BB94021FFF739FF2860286118B90C23C8F80030CDE040236B610023099320238DF82930DFF89CB130238DF82A3037463C4614F8013B9C
:404100001BB9B7EB060910D003E0252BF9D02746F3E74B46324629464046FFF771FF013000F0A780099B4B4409933B78002B00F0A08000234FF0FF3204930793059206937A
:404140008DF853301A930126052221784E48FFF7BBFB671C049B38B14B4A3C46801A06FA00F018430490EFE7D90644BF20228DF853201A0744BF2B228DF8532022782A2A7D
:4041800003D0079A00210A200BE0039A111D12680391002A10DA524243F00200079204900BE027463B780134303B092B03D800FB02320121F5E701B107923B782E2B1ED145
:4041C0007B782A2B0AD1039B02371A1D1B680392002BB8BF4FF0FF33059310E0002319460593781C0A2407463A780130303A092A03D804FB01210123F5E703B105910322C7
:4042000039782248FFF760FB40B14023CBEB000003FA00F0049B013718430490397806221B487E1C8DF82810FFF74EFB88B1194B33B9039B073323F007030833039314E040
:4042400003AB00932A46144B04A94046FEF700F907E003AB00932A460F4B04A94046FEF7B1FBB0F1FF3F824603D0099B5344099342E7AB895B0601D4099801E04FF0FF3073
:404280001DB0BDE8F08F00BF684500006E45000072450000512400000140000038B5064C0023054608462360FCF7C0FA431C02D1236803B12B6038BDE081FF1F884210B557
:4042C00001EB020301D8421E0BE09842FBD28118D21AD34204D013F8014D01F8014DF8E710BD994204D011F8014B02F8014FF8E710BD70477047F8B5074615460E4621B95D
:404300001146BDE8F840FFF71DBE1AB9FFF7CEFD2846F8BD00F015F885420ED929463846FFF710FE044650B131462A46FDF7ECFF31463846FFF7BAFD01E03046F8BD204600
:40434000F8BD51F8040C0028BEBF091851F8043CC0180438704700004FEA410212F5001215D211D56FF47873B3EB625212D94FEAC12343F0004343EA505311F0004F23FA58
:4043800002F018BF404270474FF00000704750EA013005D111F0004008BF6FF0004070474FF00000704700BF00000000000000000A537461727465640A0000000A436F7595
:4043C0006E746572313A25640A0000000A436F756E746572323A25640A000000004F00401800005100401000305100404000F0510040100000000140001000140140000895
:4044000000400140000A004C01400002005001402000000073717274000000004300494E4600696E66004E414E006E616E003000303132333435363738394142434445469E
:40444000003031323334353637383961626364656600496E66696E697479004E614E00504F534958002E0000000000000000F03F00000000000024400000000000005940A6
:404480000000000000408F40000000000088C34000000000006AF8400000000080842E4100000000D01263410000000084D797410000000065CDCD41000000205FA00242F1
:4044C000000000E876483742000000A2941A6D42000040E59C30A2420000901EC4BCD64200003426F56B0C430080E03779C3414300A0D8855734764300C84E676DC1AB4349
:40450000003D9160E458E143408CB5781DAF154450EFE2D6E41A4B4492D54D06CFF08044F64AE1C7022DB544B49DD9794378EA4405000000190000007D00000000000000D7
:404540000080E03779C34143176E05B5B5B89346F5F93FE9034F384D321D30F94877825A3CBF737FDD4F1575232D302B2000686C4C0065666745464700000000F8B500BF61
:40458000F8BC08BC9E4670474D000000A9080000F8B500BFF8BC08BC9E46704729000000B0450000C880FF1FE000000040000000000000000060EA476F12033B00C07346FE
:4045C00041D2673DC60AB73F5BDACC390000FA444980C73F650B773A0050C346E881FF1F0000E02EC05D00001800000000366E01010000000000000000000000000000000D
:4046000000000000000000000000000000000000000000001C440000000000000000000000000000000000000000000000000000000000000000000000000000000000001A
:4046400000000000000000000000000000000000000000000C81FF1F654400006D4500006D4500006D4500006D4500006D4500006D4500006D4500006D4500006D450000A4
:40468000FFFFFFFFFFFFFFFFFFFFFFFFFFFF000000000000000000000000000000000000000000000000000000000000000000000000000000000000000000000000000008
:4046C00000000000000000000000000000000000000000000000000000000000000000000000000000000000000000000000000000000000000000000000000000000000BA
:404700000000000000000000000000000000000000000000000000000000000000000000000000000000000000000000000000000000000000000000000000000000000079
:404740000000000000000000000000000000000000000000000000000000000000000000000000000000000000000000000000000000000000000000000000000000000039
:4047800000000000000000000000000000000000000000000000000000000000000000000000000000000000000000000000000000000000000000000000000000000000F9
:020000040003F7
:0200000480007A
:40000000024F0040055200400664004001650040010101400402014001030140040501406106014042070140580801404D090140560A0140460B0140630C0140410D014053
:40004000490E0140320F014002150140091701405B18014045190140431A01403F1B01400540014001410140084201400743014002440140074501400546014004470140D6
:4000800003480140074C0140074D014006500140015101400A4B164B09201020112060806440860F876F89388A0F8D6F8F0F8A72E60439023F0159045F0127408510AB4019
:4000C000E080E6080D020F011008140118031A0C1C032303290330043101320134083502360238883E143F114063410549FF4AFF4BFF4DA04F015018540F5604580459042F
:400100005A045B045F016040628064406540668068406A806C406D206E80800185FD87028B0F8D9E8F609201940499739DCF9E0C9F30A194A360A530A7C9AA03B004B20844
:40014000B401B602B7FFBE11BF40C023C105C523C6C0C74EC83BC9FFCAFFCBFFCDAFCE07CF01D018D280D40FD804D904DA04DB04DF05E040E280E440E540E680E840EA80A9
:40018000EC40ED20EE8003800A200B420E900F05111018041A601B981D081E841F4022402610278028502C202D082F483020318038A039083F8040044108450849804B05E1
:4001C0004D804FA0521453015A445B215D085E215F806214660173407A028241870190A091189201A340A850AB40AD04AE01C008C2FDC402CAA3CC0CCE1ED046D238D6FF50
:40020000D886DE08E202E401EA0D000202040402060509200F101002110C12041404160219061D0C210A27202B013001311032063301350E372039203A083F4058045904B3
:400240005F01823C838085538704880189038B448C308D208E048F459240942095539604970C990A9B549C309E089F08A202A41CA82CAA10AF80B002B140B201B30FB43CC8
:40028000B580B640B730B980BB08BE04BF11C003C540C9FFCA07CBFFCC40CD20CEF0CF05D008D418D804D904DA04DB04DC10DD11DF01E040E1A8E240E32000020202030815
:4002C0000750088009010B200E601080122819041B521E601F04228423842550262027502A402C202D213008312032943480362238883A903B013C203E40410848405040A8
:4003000059016180630482018540884089308D01904C9101920194209580962097289A189C809D049E809F84A090A20EA308A448A510A681A742A802A901AA02AB18AD0128
:40034000AE08C03BC23DC40ECAE8CCBECE3FD002D601D80C040C067109770C100E4011CA1220132514DC15BF1622174019051BFA1E03200921CC22D023132414281029836E
:400380002AAC2B1C31F0330F34E0361F3A2040644102450B46C0470E481949FF4AFF4BFF4EF04F44500C5401580459045A045B045C015D115F0166C06A406B028240830186
:4003C000860E8822897F8A04902291C59204933A942E95FE970198089A209DA39E109F5CA020A208A40EA596A768A90EABF0AE01B01EB1FFB201B660BF01D804D904DF0187
:40040000008003200520075008400A620C200D040E020F40100812A014801580162018081A021B201C221D012104220A23402740288029202C202D202F143020320A348029
:40044000360A3A203C023D203E2042C043204420461048084A2052105308582259045B8084019044920194209A089C409F04A080A204A742A820C075C2FDC4BECA65CCD721
:40048000CEA4D005D204D60FE080EE040194036004CC0530062107C908770CCC0DCF0E120F3015FD170218BB199E1A441B601C801E1F1F0F257328082AF1300F34F037FF51
:4004C0003F404042410549FF4AFF4BFF4DA04F015018580459045A045F016040628064406540668068406A806C406D206E808508870489088C018D089301970399019C0223
:400500009D04A201B002B104B201B308B502B701B908BE05BF45C053C104C542C6C3C70EC81FC9FFCAFFCBFFCDAFCE07CF01D018D280D40FD804D904DA04DB04DF05E04074
:40054000E280E440E540E680E840EA80EC40ED20EE800302046408400E091080160819041B011C441D1020122211232227012F1031013250330434803590368438A03910A1
:400580003B243C403E094090472248414B044D8050C05108521059245A42610862106520670471017910870192C1946497049A089C209F01A284A4C0A740B584C0E1C2C157
:4005C000C448CA40CC7FCEDED0A3D218D60FD806DE04E4080102030405010710080409040B020E061D011E012102230C29022B0430043108320133013402350637103908E9
:400600003B203E01580459045F018010810482208308840A85048605870888078B038C0C8E038F1093209410951C9660980F9B409C239D029E1C9F1DA510A805A903AA0A99
:40064000AC10AD1CAEA0B040B140B280B301B40FB502B630B73CBA80BF14D40FD604D804D904DB04DF01008001200464050107080A020D080E0915201608174019201A40B8
:400680001B041D291E092111224123102504269027402B442C022D202E08308034203684370139223B043C443E013F105D815E205F086602801282028921C0F3C2E1C4C01D
:4006C000CA75CCF8CEF7D6F0D88088109C109C10A820A980AA12AC40B721E001EA01EE09011004C5051A063A087F0B010CA30D1C0E5C151C18FE19061A011C0E1EF0260102
:40070000272028962A682B10330E34FF3530370139083E10580459045F01802282518531870E8B088F13904491409231953197069801992C9A0E9B039F0CA340A4E7A740CA
:40074000A8E7A940AC80B060B280B330B407B50FB618B740B988BB20BE40BF04C043C106C205C401C5C0C60EC806C9FFCAFFCBFFCC62CDA0CEF0CF41D00CD804D904DA04DB
:40078000DC11DD01DF01E640E702E910EA30EB10ED10EE10EF120002046405080A840B400E090F041002111414041608170418011A841B081F202128230124202725291420
:4007C0002B402C042F2031203284330235083720388839203C603E013F04400141014204431A49124A01524090CC91209209942097219A089D019E409F04A284A5A8A8803A
:40080000A910AB10AC01AF04B420B540C0E8C2CAC467CA67CC6FCEFED00BD20CE001EC10004404C0050C08FF09040C1C0D020EE110E711531218130C141C16E21743195C00
:400840001A041B031D081EE3201021012320240825032818295F2C802D1F2F4030C0310F321F331035203638374C3AA83B023F0456025712580459045B045C115D105F017F
:4008800082048C088E12900892109408961098109A089E01A204B002B201B418B604BA20BE40D804DF01000201A003300502070109020A220B040E540F0110A81340170233
:4008C00019B51A201B401C201D801E541F1021032204230629902A022B20308031023210330838283B405A085E025F026802691470BC8601870888018A028B108F019340DE
:400900009516972099029B119D15A308A413A580A601A740C09FC2FFC41FCA0FCC0FCE0ED602E220338037108380CC30E6209F105B025F028B019B029F10AB02D6C0EE80E5
:400940001B011D0283109F10A701C630E2207508DE040B020E02670885089D08C203D8018B049708A201AB01E00188108E01A201E20C8102A102E08008100D4062028202B6
:400980009C10C203D802104088408D409180C408E201E60800030A010C030E0110031C03000F0000800040808000800000000000C03F3F0020000000C038380020000000FE
:4009C00000000000000000000000000000000000000000000000000000000000000000000000000000000000000000000000000000000000000000000000000000000000F7
:400A000000000000000000000000000000000000000000000000000000000000000000000000000000000000000000000000000000000000000000000000000000000000B6
:400A40000000000000000000000000000000000000000000000000000000000000000000000000000000000000000000000000000000000000000000000000000000000076
:400A80000000000000000000000000000000000000000000000000000000000000000000000000000000000000000000000000000000000000000000000000000000000036
:0200000490006A
:0400000000004005B7
:0200000490105A
:04000000BC90ACAF55
:0200000490303A
:02000000C56CCD
:0200000490402A
:4000000000000000000000000000000000000000000000000000000000000000000000000000000000000000000000000000000000000000000000000000000000000000C0
:400040000000000000000000000000000000000000000000000000000000000000000000000000000000000000000000000000000000000000000000000000000000000080
:400080000000000000000000000000000000000000000000000000000000000000000000000000000000000000000000000000000000000000000000000000000000000040
:4000C0000000000000000000000000000000000000000000000000000000000000000000000000000000000000000000000000000000000000000000000000000000000000
:0200000490501A
:0C00000000012E16106900012E34D5D529
:00000001FF