:400000000080002011000000290800002908000008B5044B1A6803F53F5302331A6000F023FC00BFFA46004010B5054C237833B9044B13B10448AFF300800123237010BDF6
:40004000A881FF1F00000000DC5C0000084B10B51BB108490848AFF300800848036803B910BD074B002BFBD0BDE81040184700BF00000000AC81FF1FDC5C0000C880FF1FD2
:400080000000000010B501F0DFF9044601F0F4F9201A10BD70B504461F4D2968406902F01FF90646304601F0B9FC01F031FA01F0B9FF064620616D68294602F0B9FA68B168
:4000C000154B1968304602F0BFF90146206001F0FFFFE06000236360A36070BD0E4E3168284602F0B1F9054620607168606902F0ABF9294601F0EAFF0646606029462846BF
:4001000001F0E6FF0146304601F0E2FFE060294601F0DCFFA06070BDCC80FF1F2DE9F84304460846114601F0D1FF05466061D4F82080216802F0D4F80746E66831466068AE
:4001400002F0CEF80146384601F0C2FF0746D4F808902169284601F0B9FF0146484602F0BFF80146384601F0B3FF0746404602F063F8394602F0B4F802F078FAA0612561F0
:400180003146284601F0A4FFE060BDE8F88300BFF8B50446174605688668C06802F0A0F80146304601F094FF06463946206902F097F80146304601F08BFF0146284602F051
:4001C0008FF86060F8BD00BF70B516461D464468886902F031F8214601F07AFF02F046FA04460028D4BF0020012000F0AFFDE00F00F0B8FD84EAE470A0EBE47080B200F06C
:40020000A7FB7468A86902F017F8214601F060FF02F02CFA04460028D4BF0020012000F0ADFDE00F00F0B6FD84EAE470A0EBE47080B200F0FBFB70BD38B50C46114600224F
:400240004260626000228A619A612246FFF7BCFF38BD00BF2DE9F04F83B00446019190461E460C9DFFF70EFFA36AC01AA3699842C0F2A180514B9968606A01F029FF606219
:40028000FFF700FFA06200F037FC706200F0D2FC6862D4F82490D4F800A05146484602F0BDF950B1454BD3F800A05146484602F017F8E061C4F820A04BE0D4F810B03F4BF1
:4002C0005F683946584602F0B3F998B15146484601F0FCFE394BD3F80090494602F000F80146584601F0F2FEE06109F10049C4F820902EE05146484602F0A4F940B1A16859
:40030000484602F095F918B1E7610023236220E0D4F808A05146484602F09EF998B15146484601F0D3FE254BD3F80090494601F0D7FF0146384601F0C9FEE06109F1004982
:40034000C4F8209005E02B46324641460198FFF773FF706AB36AD6F81C90C01A01F06CFF494601F0BDFF0246E1693046FFF7D6FE686AAB6AD5F81C90C01A01F05DFF4946F0
:4003800001F0AEFF0246E1692846FFF7C7FE226AE1690198FFF7FCFE226AE1694046FFF7F7FE2B46424631460198FFF70DFF736AB3626B6AAB6203B0BDE8F08FCC80FF1F1E
:4003C0002DE9F041884617461E46069D079C002102F042F908B1012301E04FF0FF332B620021404602F038F908B1012301E04FF0FF332362286A01F01FFF3860206A01F0A5
:400400001BFF306000236B62AB626362A362BDE8F08100BF38B504460B4DA9684FF07E5002F012F8E061EB6823602B696360696901F056FFA0600023E36001222262002218
:40044000A262236138BD00BFCC80FF1F034B9A698260DA69C2601B6A03617047CC80FF1FF8B507460E4615461C4600F097FB00F033FC00F0B3FA00F01FFB3846FFF7CAFFA4
:400480003046FFF7C7FF2846FFF7E0FF2046FFF7DDFF002000F046FB002000F0E1FBF8BD70B5054600F014FF0646002403E000F0F9FE28550134B442F9D300232B5570BDAC
:4004C000D0B5CCB062B600F0EDFD00F097FE01F001F82CAB31AA36A941A8FFF7C1FF00F00BFB00F0A7FB00F0C9FE00F0F1FE00F0EFFE002845D007A8FFF7D2FF07AA27499B
:4005000014A802F08DFD14A800F01EFF002305E05A1C07A9885C02A9C854134607AAD25C002AF5D102A802F0C7F802460B461C4914A802F075FD14A800F006FF02A802F0F3
:40054000BBF80022174B01F0BDFA06460F4602A802F0B2F80022134B01F0B4FA01F062FD04463046394601F05DFD36AB019341AB00932CAB31AA2146FFF722FF21A8FFF7D9
:4005800089FD36AB009341AB2CAA31A921A8FFF761FE642000F000FDA5E700BFE05C0000F45C000000001040FEE700BFF0B40022174611E050F82760F3B226F0FF0608E0C0
:4005C00001EB420511F812406D78A5550132013BDBB2002BF4D10137262FEBD9F0BC7047064B1B78DBB203F00701054A11701B09013213704422034B1A707047CF010049CA
:400600006E5800407658004008B50A46002102F08EF808BD38B517222B4B1A8018232B490B7002310A802A4A1370332102321180023213704FF49C7102321180023213708B
:400640000222244B1A7008224FF040231A70032103F500731970204B1B78DBB21F490B701F4B1A8041F25122023B1A80002419250CE01C4B1B7803F0010343EA440404F058
:4006800003044FF4F07000F033FF013D0DB1032CEFD115B90320FFF787FF134B4FF480721A8007221A70002210490A704820023108701A700222033B1A700D4A137843F0A3
:4006C0000F03137038BD00BF8040004082400040864000400043004008010049A146004022420040254200400440004006400040A243004008B502F00FF808BD38B572B6A3
:40070000374A137843F00403137000240CE0354D630019194A0011462A44084691882858FFF772FF0134E4B2092CF0D900240CE02C48A20011194B000344B3F84420196C2D
:40074000D86BFFF7D7FF0134E4B2012CF0D926494FF09040FFF72AFF244A254B1A60254A03F560731A60244A137843F0020313701032137843F002031370204C237843F08A
:4007800040032370A2F58632513A137843F0100313700A221A491B48FFF7ACFF08221A491A48FFF7A7FF082219491A48FFF7A2FF194A137843F008031370184D61232B705F
:4007C000FFF728FF81232B700122154B1A70FFF707FF0E2221461348FFF78CFF38BD00BFE84600400C5D00009C000048040404C4D80201400400004403500140A0430040C8
:400800008C0E0048C0510040980E004812510040A00E004822510040224300400048004004000840B043004008B501F049FF03680C2B00D1FEE7FEE708B5094B1A68104485
:40084000084BC31AB3F5007F02DC054B186005E001F036FF0C2303604FF0FF32104608BDF480FF1F3882FF1F08B5104E104D16E029686B68AC68002204E051F8040B43F86A
:40088000040B0432A242F8D1E868002203E0002143F8041B04328242F9D11035013E002EE6D101F013FFFFF70BFEFEE701000000405F000008B5104A104B1A60104A136801
:4008C00043F40073136000230AE0032B03D80D4A52F8231000E00C490C4A42F8231001332F2BF2D90A4B1A780A4B1A70074A0A4B1A60FFF703FF08BD0004FA050CED00E021
:4009000014ED00E000000000290800000080FF1FBC760040C080FF1F08ED00E0084A137843F0010313701032137843F00103137002F64D32137843F001031370704700BF12
:40094000A3430040014B1880704700BF044F0040014B1880704700BF064F0040014B1870704700BF034F004008B5194A137843F0020313700232137803F08F0343F01003A9
:400980001370144B1A7802F0CF021A701A7842F030021A701A7802F0F0021A701A7842F00F021A7046F2A810FFF7CCFF0020FFF7CFFF0020FFF7D2FF074A137843F0010308
:4009C000137002F65E32137843F00103137008BD004F00400B4F0040A343004008B5054B1B7823B9FFF7C0FF0122024B1A70FFF795FF08BDC481FF1F084A137843F00203A1
:400A000013701032137843F00203137002F65932137843F001031370704700BFA3430040014B1880704700BF104F0040014B1880704700BF124F0040014B1870704700BF09
:400A40000F4F004008B5194A137843F0020313700232137803F08F0343F010031370144B1A7802F0CF021A701A7842F030021A701A7802F0F0021A701A7842F00F021A7048
:400A800046F2A810FFF7CCFF0020FFF7CFFF0020FFF7D2FF074A137843F00203137002F66A32137843F00103137008BD0C4F0040174F0040A343004008B5054B1B7823B9A2
:400AC000FFF7C0FF0122024B1A70FFF795FF08BDC581FF1F08B50122054B1A600549002000F070FA0721002000F080FA08BD00BF80E100E0D10B000010B50124064B1C6018
:400B000000F06EF9A0F5004000B2044B1B68044A1460184410BD00BF80E100E0C881FF1F00E100E038B505460124054B1C604FF4004000F04FF9034B1D60034B1C6038BD84
:400B400080E100E0C881FF1F00E100E0024B187800F00F00704700BF6B64004040F00700014B1870704700BF8B64004008B50F20FFF7F4FFFFF7EAFF00F0C2FC054A1378BF
:400B800043F01003137000F0BFFC0122024B1A6008BD00BF9B64004000E100E008B500F071F94FF4004000F015F90022064B1A60064B1B7823B9FFF78DFF0122034B1A7091
:400BC000FFF7D4FF08BD00BFC881FF1FC681FF1F0D4B1B78DBB213F0010F06D00B490A6802F5FF427F320A6007E013F0020F04D006490A68A2F500420A6013F0040F02D0A7
:400C00000022024B1A6070476B640040C881FF1F08B50222054B1A600549012000F0D2F90721012000F0E2F908BD00BF80E100E00D0D000010B50224064B1C6000F04AF9EB
:400C4000A0F5004000B2044B1B68044A1460184410BD00BF80E100E0D081FF1F00E100E038B505460224054B1C604FF4004000F02BF9034B1D60034B1C6038BD80E100E074
:400C8000D081FF1F00E100E0024B187800F00F00704700BF6465004040F00700014B1870704700BF8465004008B50F20FFF7F4FFFFF7EAFF00F024FC054A137843F010031B
:400CC000137000F021FC0222024B1A6008BD00BF9465004000E100E008B500F04DF94FF4004000F0F1F80022064B1A60064B1B7823B9FFF78DFF0122034B1A70FFF7D4FFB9
:400D000008BD00BFD081FF1FCC81FF1F0D4B1B78DBB213F0010F06D00B490A6802F5FF427F320A6007E013F0020F04D006490A68A2F500420A6013F0040F02D00022024BB1
:400D40001A60704764650040D081FF1F044A137803F0F703C00000F0080018431070704720510040044A137803F0EF03000100F0100018431070704720510040044A13782E
:400D800003F0BF03800100F0400018431070704720510040044A137803F0DF03400100F0200018431070704720510040024A137843F080031370704776640040014B187093
:400DC000704700BF83640040014B1878704700BF63640040014B1880704700BF04680040024B1B78024B188880B270470264004084680040014B188880B27047846800406E
:400E0000014B1880704700BF44680040014B1880704700BF6468004008B501E0FFF7EAFFFFF7D2FF10F0400FF8D108BD08B5134B1A7802F0F8021A701A7802F0FC021A70B6
:400E4000FFF7EAFF4FF40040FFF7DAFF4FF40040FFF7C0FF0020FFF7B1FFFFF7B5FF4FF40040FFF7D3FF00F04BFB054A137843F01003137000F048FB08BD00BF76640040A4
:400E80009364004008B5054B1B7823B9FFF7CEFF0122024B1A70FFF789FF08BDD481FF1F024A137843F080031370704777640040014B1870704700BF86640040014B1878DA
:400EC000704700BF66640040014B1880704700BF08680040024B1B78024B188880B270470464004088680040014B188880B2704788680040014B1880704700BF486800408B
:400F0000014B1880704700BF6868004008B501E0FFF7EAFFFFF7D2FF10F0400FF8D108BD08B5134B1A7802F0F8021A701A7802F0FC021A70FFF7EAFF4FF40040FFF7DAFFC6
:400F40004FF40040FFF7C0FF0020FFF7B1FFFFF7B5FF4FF40040FFF7D3FF00F0D1FA054A137843F01003137000F0CEFA08BD00BF776400409664004008B5054B1B7823B913
:400F8000FFF7CEFF0122024B1A70FFF789FF08BDD581FF1F01BE704710B5044605E0084B186800F0A5FAA4F50044B4F5004FF6D8034B586800FB04F000F09AFA10BD00BF41
:400FC000F880FF1F70B504460E46074B1D681F2802D90020FFF7DEFF04F01F04103455F8240045F8246070BD08ED00E038B504460D46072902D90020FFF7CCFF1F2C02D981
:401000000020FFF7C7FF04F01F0000F1604000F564406D01EDB2057038BD00BF08B50D490220FFF7CFFF07210220FFF7DFFF0023094A13707221094A11702021013A1170ED
:4010400006215E3A1170472110321170B23A137008BD00BFC1100000D681FF1F8A65004010B500F04DFA04460B4A137843F020031370013A137843F0100313700422074B97
:401080001A60074A137843F01003137000F064F8204600F039FA10BD9A65004000E100E09964004008B5054B5B7823B9FFF7B6FF0122024B5A70FFF7D3FF08BDD681FF1F8F
:4010C0001D4B1B78DBB213F01E0F05D01B4803F01E0201780A43027003F0200303F0FF0233B3174B1978C9B2164B1B78DBB21648C154164B1B7813F0FF0F02D00121144B0B
:40110000197010490B780133DBB20B700B78DBB21F2B02D900210B4B19700A4B1978C9B20C4B1B78DBB2994202D10121074B1970002AC5D1704700BF69650040D681FF1F9D
:4011400049650040D981FF1FF081FF1FDA81FF1FDB81FF1FD881FF1F054A137843F0040313701032137843F004031370704700BFA243004008B50D490320FFF723FF0721DE
:401180000320FFF733FF0023094A13707221094A11702021013A117006219B321170472110321170B03A137008BD00BF6D130000DD81FF1F8E64004010B500F0A1F904462F
:4011C0000B4A137843F020031370013A137843F0100313700822074B1A60074A137843F01003137000F00EF9204600F08DF910BD9E64004000E100E09864004008B5054B20
:401200005B7823B9FFF7B6FF0122024B5A70FFF7D3FF08BDDD81FF1F0822134B1A60134A9378DBB2D178C9B2127912F0FF0F01D18B4211D00E4AD05CC0B20133DBB21F2B3A
:4012400000D90023094A9370137913F0FF0F06D00022064B1A7102E0064B1878C0B20822054B1A60704700BF80E100E0DD81FF1F1082FF1F4D64004000E100E0074B18780B
:4012800000F07F00064B5B7913F0FF0F04D040F080000022024B5A71704700BF6D640040DD81FF1F10B50823064A1360064A147800211170054A13609C40FFF7ADFF2043F4
:4012C00080B210BD80E100E0DD81FF1F00E100E00822144B1A60144B9A78D2B2DB78DBB29A4206D1104B1B7913F0FF0F15D0202014E00D4B9A78D2B2DB78DBB29A4205D24C
:40130000094AD3789078181AC0B207E0064AD3789078181A2030C0B200E000200822034B1A60704780E100E0DD81FF1F00E100E0034B1B7813F0040FFAD1024B1870704770
:40134000686400404864004038B5074B5B782BB938BDFFF7EDFF0134A4B201E005460024285D0028F5D138BDDD81FF1F1D4B1B78DBB213F01E0F05D01B4803F01E0201786D
:401380000A43027003F0200303F0FF0233B3174B1978C9B2164B1B78DBB21648C154164B1B7813F0FF0F02D00121144B197010490B780133DBB20B700B78DBB21F2B02D9EE
:4013C00000210B4B19700A4B1978C9B20C4B1B78DBB2994202D10121074B1970002AC5D1704700BF6D640040DD81FF1F4D640040E081FF1F1082FF1FE181FF1FE281FF1F86
:40140000DF81FF1F054A137843F0080313701032137843F008031370704700BFA2430040024A137843F080031370704775650040014B1870704700BF87650040014B187837
:40144000704700BF67650040014B1868704700BF24650040014B1860704700BF24650040014B1868704700BF44650040014B1860704700BF04650040024B1B78024B186821
:40148000704700BF046500404465004008B501E0FFF7E6FFFFF7D2FF10F0080FF8D108BD08B54FF0FF30FFF7D5FF4FF0FF30FFF7DDFF00F025F8064A137843F01003137059
:4014C00000F022F8FFF7E2FF0020FFF7B1FF08BD9765004008B5054B1B7823B9FFF7E0FF0122024B1A70FFF79BFF08BDE481FF1F0230800803D000BF01380046FCD17047D2
:40150000EFF3108072B6704780F31088704700BF2DE9F04F8BB004460D4600F055F8284B064693F900A00F46BAF1FF3F12D022462B462046294600F05FFD834650B94FF059
:4015400000084FF000092046294642464B4600F02BFD20B9304639460BB0BDE8F08F194A0123CDF820B0CDE90445CDE9024501920093BAF1000F15D042464B46404649465D
:4015800000F0CAFBBAF1020FCDE906010CD101F097F821230360089B63B9DDE906010BB0BDE8F08FCDE90689684600F0D1F80028F1D1ECE701F084F8089B0360EDE700BF1F
:4015C0000881FF1F5C5D00002DE9F0415F4E0C46B6460E407645054600F0988000290B46024674DD5FEA215E7FD0AEF2FF3EC3F313031EF0010F43F4801363D100273E4653
:4016000003EBD2710B444FEA6E0E520016204FF4001174189C424FEAD2754FEA420202DC1B1B66180F44013805EB43034FEA5101EFD1844620244FF0004109E020D003EB3E
:40164000D275013C4FEA51012B444FEA420220D09E4201EB0C05F1DA002D05EB010C09DBB0469542A3EB060300D9013B4646521B0844E4E7BCF1000FF2DB06F10108F0E7E0
:40168000954217D8002D05EB010C49DB98460023ECE7134310D140087B1003F17F5303F50013FA0703EB0E57394648BF40F00040BDE8F0813346C2E7411C35D000F001038F
:4016C0001844E8E75B0003EBD273520096E721F000460643ECD079BB8E46D30AAEF1150E5205002BF9D0DD0221D4002100E001465B00DC0201F10100F9D5C0F1200422FA0D
:4017000004F42343C1EB0E0E82406EE702460B4600F0D8F92A46234600F022F8BDE8F081BCF1000FA9DAB1E701372046B4E720244FF0FF310020E2E702460B4600F00EF8DE
:4017400002460B4600F0E8FAB2E700BF0000F07F0020704781F0004102E000BF83F0004330B54FEA41044FEA430594EA050F08BF90EA020F1FBF54EA000C55EA020C7FEAB1
:40178000645C7FEA655C00F0E2804FEA5454D4EB5555B8BF6D420CDD2C4480EA020281EA030382EA000083EA010180EA020281EA0303362D88BF30BD11F0004F4FEA013139
:4017C0004FF4801C4CEA113102D0404261EB410113F0004F4FEA03334CEA133302D0524263EB430394EA050F00F0A780A4F10104D5F1200E0DDB02FA0EFC22FA05F28018A9
:4018000041F1000103FA0EF2801843FA05F359410EE0A5F120050EF1200E012A03FA0EFC28BF4CF0020C43FA05F3C01851EBE37101F0004507D54FF0000EDCF1000C7EEB9A
:4018400000006EEB0101B1F5801F1BD3B1F5001F0CD349085FEA30004FEA3C0C04F101044FEA445212F5800F80F09A80BCF1004F08BF5FEA500C50F1000041EB045141EAAD
:40188000050130BD5FEA4C0C404141EB010111F4801FA4F10104E9D191F0000F04BF01460020B1FA81F308BF2033A3F10B03B3F120020CDA0C3208DD02F1140CC2F10C02B5
:4018C00001FA0CF021FA02F10CE002F11402D8BFC2F1200C01FA02F120FA0CFCDCBF41EA0C019040E41AA2BF01EB0451294330BD6FEA04041F3C1CDA0C340EDC04F11404E3
:40190000C4F1200220FA04F001FA02F340EA030021FA04F345EA030130BDC4F10C04C4F1200220FA02F001FA04F340EA0300294630BD21FA04F0294630BD94F0000F83F4DB
:40194000801306BF81F480110134013D4EE77FEA645C18BF7FEA655C29D094EA050F08BF90EA020F05D054EA000C04BF1946104630BD91EA030F1EBF0021002030BD5FEAF5
:40198000545C05D14000494128BF41F0004130BD14F580043CBF01F5801130BD01F0004545F0FE4141F470014FF0000030BD7FEA645C1ABF194610467FEA655C1CBF0B460C
:4019C000024650EA013406BF52EA033591EA030F41F4002130BD00BF90F0000F04BF0021704730B54FF4806404F132044FF000054FF0000150E700BF90F0000F04BF00211A
:401A0000704730B54FF4806404F1320410F0004548BF40424FF000013EE700BF42004FEAE2014FEA31014FEA02701FBF12F07F4393F07F4F81F06051704792F0000F14BF22
:401A400093F07F4F704730B54FF4607401F0004521F0004120E700BF50EA010208BF704730B54FF000050AE050EA010208BF704730B511F0004502D5404261EB41014FF436
:401A8000806404F132045FEA915C3FF4DCAE4FF003025FEADC0C18BF03325FEADC0C18BF033202EBDC02C2F1200300FA03FC20FA02F001FA03FE40EA0E0021FA02F1144426
:401AC000C1E600BF70B54FF0FF0C4CF4E06C1CEA11541DBF1CEA135594EA0C0F95EA0C0F00F0DEF82C4481EA030621EA4C5123EA4C5350EA013518BF52EA033541F480111E
:401B000043F4801338D0A0FB02CE4FF00005E1FB02E506F00042E0FB03E54FF00006E1FB03569CF0000F18BF4EF0010EA4F1FF04B6F5007F64F5407404D25FEA4E0E6D4135
:401B400046EB060642EAC62141EA55514FEAC52040EA5E504FEACE2EB4F1FD0C88BFBCF5E06F1ED8BEF1004F08BF5FEA500E50F1000041EB045170BD06F0004646EA010165
:401B800040EA020081EA0301B4EB5C04C2BFD4EB0C0541EA045170BD41F480114FF0000E013C00F3AB8014F1360FDEBF002001F0004170BDC4F10004203C35DA0C341BDC5E
:401BC00004F11404C4F1200500FA05F320FA04F001FA05F240EA020001F0004221F0004110EBD37021FA04F642EB06015EEA430E08BF20EAD37070BDC4F10C04C4F120055B
:401C000000FA04F320FA05F001FA04F240EA020001F0004110EBD37041F100015EEA430E08BF20EAD37070BDC4F1200500FA05F24EEA020E20FA04F301FA05F243EA0203C2
:401C400021FA04F001F0004121FA04F220EA020000EBD3705EEA430E08BF20EAD37070BD94F0000F0FD101F00046400041EB010111F4801F08BF013CF7D041EA060195F0C0
:401C8000000F18BF704703F00046520043EB030313F4801F08BF013DF7D043EA0603704794EA0C0F0CEA135518BF95EA0C0F0CD050EA410618BF52EA4306D1D181EA030137
:401CC00001F000414FF0000070BD50EA410606BF1046194652EA430619D094EA0C0F02D150EA013613D195EA0C0F05D152EA03361CBF104619460AD181EA030101F000412B
:401D000041F0FE4141F470014FF0000070BD41F0FE4141F4780170BD70B54FF0FF0C4CF4E06C1CEA11541DBF1CEA135594EA0C0F95EA0C0F00F0A7F8A4EB050481EA030E50
:401D400052EA03354FEA013100F088804FEA03334FF0805545EA131343EA12634FEA022245EA111545EA10654FEA00260EF000419D4208BF964244F1FD0404F5407402D2E9
:401D80005B084FEA3202B61A65EB03055B084FEA32024FF480104FF4002CB6EB020E75EB030E22BFB61A754640EA0C005B084FEA3202B6EB020E75EB030E22BFB61A7546F7
:401DC00040EA5C005B084FEA3202B6EB020E75EB030E22BFB61A754640EA9C005B084FEA3202B6EB020E75EB030E22BFB61A754640EADC0055EA060E18D04FEA051545EA18
:401E000016754FEA06164FEAC30343EA52734FEAC2025FEA1C1CC0D111F4801F0BD141EA00014FF000004FF0004CB6E711F4801F04BF01430020B4F1FD0C88BFBCF5E06FEF
:401E40003FF6AFAEB5EB030C04BFB6EB020C5FEA500C50F1000041EB045170BD0EF0004E4EEA113114EB5C04C2BFD4EB0C0541EA045170BD41F480114FF0000E013C90E632
:401E800045EA060E8DE60CEA135594EA0C0F08BF95EA0C0F3FF43BAF94EA0C0F0AD150EA01347FF434AF95EA0C0F7FF425AF104619462CE795EA0C0F06D152EA03353FF4FD
:401EC000FDAE1046194622E750EA410618BF52EA43067FF4C5AE50EA41047FF40DAF52EA43057FF4EBAE12E74FF0FF3C06E000BF4FF0010C02E000BF4FF0010C4DF804CD11
:401F00004FEA410C7FEA6C5C4FEA430C18BF7FEA6C5C1BD001B050EA410C0CBF52EA430C91EA030F02BF90EA020F0020704710F1000F91EA030F58BF994208BF90422CBF1E
:401F4000D8176FEAE37040F0010070474FEA410C7FEA6C5C02D150EA013C07D14FEA430C7FEA6C5CD6D152EA033CD3D05DF8040B704700BF8446104662468C46194663460B
:401F800000E000BF01B5FFF7B7FF002848BF10F1000F01BD4DF808EDFFF7F4FF0CBF012000205DF808FB00BF4DF808EDFFF7EAFF34BF012000205DF808FB00BF4DF808ED3F
:401FC000FFF7E0FF94BF012000205DF808FB00BF4DF808EDFFF7CEFF94BF012000205DF808FB00BF4DF808EDFFF7C4FF34BF012000205DF808FB00BF4FEA410C7FEA6C5CC4
:4020000002D150EA013C0AD14FEA430C7FEA6C5C02D152EA033C02D14FF0000070474FF0010070474FEA4102B2F1E04324BFB3F5001CDCF1FE5C0DD901F0004C4FEAC00286
:402040004CEA5070B2F1004F40EB830008BF20F00100704711F0804F21D113F13872BCBF01F00040704741F480114FEA5252C2F11802C2F1200C10FA0CF320FA02F018BF2D
:4020800040F001004FEAC1234FEAD32303FA0CFC40EA0C0023FA02F34FEA4303CCE77FEA625307D150EA01331EBF4FF0FE4040F44000704701F0004040F0FE4040F4000068
:4020C000704700BF80F0004002E000BF81F0004142001FBF5FEA410392EA030F7FEA226C7FEA236C6AD04FEA1262D2EB1363C1BFD218414048404140B8BF5B42192B88BF90
:40210000704710F0004F40F4000020F07F4018BF404211F0004F41F4000121F07F4118BF494292EA030F3FD0A2F1010241FA03FC10EB0C00C3F1200301FA03F100F0004317
:4021400002D5494260EB4000B0F5000F13D3B0F1807F06D340084FEA310102F10102FE2A51D2B1F1004F40EBC25008BF20F0010040EA03007047490040EB000010F4000FFA
:40218000A2F10102EDD1B0FA80FCACF1080CB2EB0C0200FA0CF0AABF00EBC25052421843BCBFD0401843704792F0000F81F4000106BF80F400000132013BB5E74FEA410399
:4021C0007FEA226C18BF7FEA236C21D092EA030F04D092F0000F08BF0846704790EA010F1CBF0020704712F07F4F04D1400028BF40F00040704712F100723CBF00F50000D5
:40220000704700F0004343F0FE4040F4000070477FEA226216BF08467FEA23630146420206BF5FEA412390EA010F40F4800070474FF0000304E000BF10F0004348BF4042B6
:402240005FEA000C08BF704743F0964301464FF000001CE050EA010208BF70474FF000030AE000BF50EA010208BF704711F0004302D5404261EB41015FEA010C02BF844690
:402280000146002043F0B64308BFA3F18053A3F50003BCFA8CF2083AA3EBC25310DB01FA02FC634400FA02FCC2F12002BCF1004F20FA02F243EB020008BF20F00100704788
:4022C00002F1200201FA02FCC2F1200250EA4C0021FA02F243EB020008BF20EADC7070474FF0FF0C1CEAD0521EBF1CEAD15392EA0C0F93EA0C0F6FD01A4480EA010C400264
:4023000018BF5FEA41211ED04FF0006343EA501043EA5111A0FB01310CF00040B1F5000F3EBF490041EAD3715B0040EA010062F17F02FD2A1DD8B3F1004F40EBC25008BF8F
:4023400020F00100704790F0000F0CF0004C08BF49024CEA502040EA51207F3AC2BFD2F1FF0340EAC250704740F400004FF00003013A5DDC12F1190FDCBF00F000407047E2
:40238000C2F10002410021FA02F1C2F1200200FA02FC5FEA310040F1000053EA4C0308BF20EADC70704792F0000F00F0004C02BF400010F4000F013AF9D040EA0C0093F0A3
:4023C000000F01F0004C02BF490011F4000F013BF9D041EA0C018FE70CEAD15392EA0C0F18BF93EA0C0F0AD030F0004C18BF31F0004CD8D180EA010000F00040704790F09B
:40240000000F17BF90F0004F084691F0000F91F0004F14D092EA0C0F01D142020FD193EA0C0F03D14B0218BF084608D180EA010000F0004040F0FE4040F40000704740F0EE
:40244000FE4040F4400070474FF0FF0C1CEAD0521EBF1CEAD15392EA0C0F93EA0C0F69D0A2EB030280EA010C49024FEA402037D04FF0805343EA111143EA10130CF0004031
:402480008B4238BF5B0042F17D024FF4000C8B4224BF5B1A40EA0C00B3EB510F24BFA3EB510340EA5C00B3EB910F24BFA3EB910340EA9C00B3EBD10F24BFA3EBD10340EA62
:4024C000DC001B0118BF5FEA1C1CE0D1FD2A3FF650AF8B4240EBC25008BF20F0010070470CF0004C4CEA50207F32C2BFD2F1FF0340EAC250704740F400004FF00003013A5E
:4025000037E792F0000F00F0004C02BF400010F4000F013AF9D040EA0C0093F0000F01F0004C02BF490011F4000F013BF9D041EA0C0195E70CEAD15392EA0C0F08D14202EE
:402540007FF47DAF93EA0C0F7FF470AF084676E793EA0C0F04D14B023FF44CAF08466EE730F0004C18BF31F0004CCAD130F000427FF45CAF31F000437FF43CAF5FE700BF6A
:402580004FF0FF3C06E000BF4FF0010C02E000BF4FF0010C4DF804CD4FEA40024FEA41037FEA226C18BF7FEA236C11D001B052EA530C18BF90EA010F58BFB2EB030088BF63
:4025C000C81738BF6FEAE17018BF40F0010070477FEA226C02D15FEA402C05D17FEA236CE4D15FEA412CE1D05DF8040B704700BF844608466146FFE70FB5FFF7C9FF00280A
:4026000048BF10F1000F0FBD4DF808EDFFF7F4FF0CBF012000205DF808FB00BF4DF808EDFFF7EAFF34BF012000205DF808FB00BF4DF808EDFFF7E0FF94BF012000205DF815
:4026400008FB00BF4DF808EDFFF7D2FF94BF012000205DF808FB00BF4DF808EDFFF7C8FF34BF012000205DF808FB00BF4FEA4002B2F1FE4F0FD34FF09E03B3EB12620DD985
:402680004FEA002343F0004310F0004F23FA02F018BF404270474FF00000704712F1610F01D1420205D110F0004008BF6FF0004070474FF000007047002101F001BB000064
:4026C000014B1868704700BF6C81FF1F0E4B70B51E460E4C0025E41AA410A54204D056F8253098470135F8E703F018FC084B094C1E46E41AA4100025A54204D056F82530E0
:4027000098470135F8E770BD285F0000285F0000285F0000305F000010B5431E0A44914204D011F8014B03F8014FF8E710BD03460244934202D003F8011BFAE770472DE9F2
:40274000F04788B0149F002B1E461299B8BF03F1004327F02007B6BF1E4600232D23462F1446109DDDF84CA00B7003D0452F03D1013501E0032300E0022307AA049206AAB9
:4027800003928DE828042246334601F02DFB472F804602D1119BDB0728D5462F08EB050911D198F80030302B0AD10022002320463146FFF7EFFB18B9C5F10105CAF8005060
:4027C000DAF8003099440022002320463146FFF7E1FB08B9302202E0CDF81C9006E0079B994503D9591C07911A70F8E74046079B159AC8EB0303136008B0BDE8F0870346C8
:4028000073B50029B8BF494203F8022BB4BF2D222B22092942701ADD0DF1070216460A2591FBF5F405FB1411092C01F1300102F8011D2146F4DC3031541E02F8011CB44280
:402840001A460AD214F8012B03F8012BF7E71A463024214402F8024B5970101A02B070BD2DE9F04F91B00C46DDF8688016461F46054602F06FFB03681846099300F0F4FB5C
:4028800000230E93D8F800300A90073323F0070303F1080294F81890D4F800B0C8F80020D3E90023C4E91223D4F84CA0D4F848802AF000430B934FF0FF32A74B40460B9941
:4028C000FFF79AFBA0B94FF0FF32A34B40460B99FFF774FB60B90022002340465146FFF763FB10B12D2384F843309C4B9C4A0AE04246534640465146FFF77EFB002800F0BC
:402900009281984B984AB9F1470F8CBF90469846032323612BF0040323604FF0000A3DE0B9F1670F00F08A81B9F1470F00F0868123600193636800210DF13302059002929A
:402940000093424653460691CDF81090CDF80CE02846FFF7F4FE09F0DF03472B804600F08481B9F1650F0D9900F28D8101394A4604F150000D91FFF742FF0E9A82468318E5
:40298000012A236100F37C812268D10700F178819DF8333013B12D2384F84330009733460FAA2146284600F09FF9013002D14FF0FF3096E123685A0501D4236965E0B9F1E8
:4029C000650F40F2D580D4E9120100220023FFF7E1FA78B30123654A31462846B8470130E5D00E9B0D9A9A420BDB2368D80708D423689B0740F111814FF0000804F1190988
:402A000006E10A9B099A31462846B8470130CED04FF0000804F11A090E9B013B9845E7DA01234A4631462846B8470130BFD008F10108F1E70D9B002B29DC01234B4A314698
:402A40002846B8470130B2D00D9B23B90E9B13B92368D907CCD50A9B099A31462846B8470130A4D04FF0000904F11A0A0D9B5B42994509DA0123524631462846B847013028
:402A800095D009F10109F1E70E9B4246A7E00E9AA36D9A42A8BF1A46002A914606DC4FF0000A29EAE97904F11A0B11E01346314642462846B8470130F1D178E701235A463B
:402AC00031462846B84701303FF471AF0AF1010AA36DC9EB03029245F0DB08EB03090D9A0E9B9A420FDB2368DA070CD40E9B0D9A9844C9EB08089B1A9845A8BF9846B8F12C
:402B0000000F08DC0FE00A9B099A31462846B8470130EBD14BE743464A4631462846B84701303FF444AF4FF0000928EAE87804F11A0A09E00123524631462846B847013087
:402B40003FF435AF09F101090D9A0E9B9B1AC8EB03039945EEDB4BE7FFFFEF7F665D00006A5D00006E5D0000725D0000765D00000E9A012A01DCDB0738D50123424631467E
:402B80002846B84701303FF412AF0A9B099A31462846B84701303FF40AAFD4E9120100220023FFF7F7F920B14FF0000804F11A090EE00E9B08F10102013B19E001234A4693
:402BC00031462846B84701303FF4F1AE08F101080E9B013B9845F1DB534604F1500231462846B84701307FF403AFE0E64246012331462846B8470130EED1D8E601234A468C
:402C000031462846B84701303FF4D1AE08F10108E3680F9A9B1A9845F0DBE0680F9B9842B8BF18465DE062680EA8531C0DF1340E4BF480637FF474AE062201E012B90122BF
:402C4000626075E6002106910DF133018DE80C00236005904246CDF81090CDF80CE0029153462846FFF76BFD80460D9BD81C02DB626893421DDDA9F102095FFA89F970E670
:402C80000133236184E6B9F1660F14D10029636807DD216113B92268D2071DD501330B4419E013B92268D00701D5023313E0012311E04FF067090D9B0E9A934205DB226879
:402CC0002361D10708D5013305E0002BD4BFC3F102030123134423610D9B4FF0000AA36556E611B0BDE8F08F2DE9F04791461F460A698B6806469342B8BF1346C9F8003021
:402D000091F843200C46DDF8208012B10133C9F800302368990642BFD9F800300233C9F80030256815F0060510D104F1190A07E00123524639463046C04701301AD0013520
:402D4000E368D9F800209B1A9D42F1DB94F843302268003318BF012392060FD5E118302081F843005A1C94F845102244023382F8431003E04FF0FF30BDE8F08704F1430219
:402D800039463046C0470130F4D02268D9F80050E36802F00602042A08BF5D1B2269A3680CBF25EAE57500259342C4BF9B1AED184FF000091A344D4509D0012322463946B8
:402DC0003046C0470130D5D009F10109F3E70020BDE8F0872DE9F04317460A7E85B06E2A984606460C460C9B01F1430E00F0AE8011D8632A22D009D8002A00F0BB80582AC7
:402E000040F0CA8081F84520834955E0642A1ED0692A1CD0C0E0732A00F0B08009D86F2A2ED0702A40F0B8800A6842F020020A603EE0752A24D0782A3AD0ADE01A6801F1D9
:402E40004205111D1960136884F84230A8E021681A6811F0800F02D0111D196008E011F0400F02F10401196002D0B2F9003000E01368002B3CDA2D225B4284F8432037E08B
:402E800021681A6811F0800F02D0111D196007E011F0400F02F10401196001D0138800E01368227E5C496F2A14BF0A2208221BE078225A4984F845202268186812F0800FD4
:402EC00000F104051D6003D1550601D5038800E00368D00744BF42F0200222601BB9226822F0200222601022002084F8430001E049490A226568002DA56008DB206820F092
:402F0000040020602BB9002D7DD175460CE0002B79D07546B3FBF2F002FB1033CB5C05F8013D03460028F5D1082A0BD12368DA0708D5236962689A42DEBF302305F8013CBC
:402F400005F1FF35C5EB0E0323612EE008681A6810F0800F496903D0101D1860136808E010F0400F02F104001860136801D0198000E0196000232361754616E01A68111DC2
:402F80001960156800216268284601F0EFFF08B1401B6060636804E004F1420584F8422001232361002384F84330CDF800803B4603AA21463046FFF797FE013002D14FF06E
:402FC000FF3026E023692A4639463046C0470130F5D023689B0710D5002504F1190907E001234A4639463046C0470130E7D00135E368039A9B1A9D42F2DBE068039B9842A2
:40300000B8BF184605E00B7804F1420584F842308AE705B0BDE8F083785D0000895D00000EB400B54FF402719CB0ADF814106FF00041049107914FF6FF711DAB029006907C
:40304000084853F8042BADF81610006802A9019302F096FC029B00221A701CB05DF804EB03B070476C81FF1F034613F8012B002AFBD1181A013870472DE9F0410F469046B8
:4030800002F048FA04460D46B8F1000F11D0C7F30A53C3F16B03002B0BDD1B0503F17F55002405F5401522462B46FEF70BFDBDE8F08120462946BDE8F08100000000000028
:4030C0002DE9F04F82460C469DB00023139218934FF000084FF000091791179B1A780D2A05D8092A13D2002A00F0AD8112E02B2A04D02D2A04D0202A0CD108E0002200E05B
:4031000001220C925A1C17925B782BB99BE101331793E2E700230C93179D2B78302B5CD16B78582B01D0782B4CD10C9BA84A019318AB009317A919AB504601F038FC10F07B
:403140000706044600F08585062E05D10135002317950C9300F07DBD189A3AB135211AA802F0BFFA1899504601F043FF062E22D8DFE806F0040D08181D0D04004FF00009BA
:40318000C84618E0DDF86880DDF86C9013E01B9B199A23F4801302F23342DDF8688043EA025908E0DFF82C924FF0000803E06FF000494FF0FF38210740F14B8549F0004957
:4031C00000F047BD179B5A1C17925B78302BF9D0002B00F03E85012300E000230593179B0A22069300239B4602930493179D2E78A6F13003D9B2092911D8BBF1080FD5BFAE
:403200000499029902FB013302FB013305F10105D4BF049302930BF1010B1795E6E7504601F098FE0768504601F094FE0068FFF71BFF39460246284602F0A6FC074628B1AC
:40324000002033465D46024601465AE0504601F081FE0068FFF708FF179B1A1817921B5CBBF1000F45D15846302B05D1179B01305A1C17925B78F7E7A3F13102082A46D870
:40328000179A0692024600200546303B00F1010129D00A44294605EB000C0A2661450FD0013101F1FF3EBEF1080F03DC049F77430497F3E71029DEBF029F77430297EDE7D7
:4032C0002844082800F1010505DC04980A2101FB0033049306E0102DDFBF02980A2101FB003302930021179B581C17905B78084602E05D4638463A46A3F130010929C4D95D
:403300000121652B01D0452B4FD16DB904E0652B40F0AD840022012128B9059B002B00F09280054600E00025179C631C179363782B2B06D02D2B02D00026039606E0012367
:4033400000E000230393A31C1793A378A3F13006092E29D8302B04D1179B5E1C17965B78F8E7A3F13106082E1FD8A3F1300E179B1F46179B5E1C17965B78A3F1300CBCF169
:40338000090F05D80A2606FB0E3EAEF1300EF0E7F61B082E44F61F6602DC7645A8BF7646039F1FB1764201E017940026002D52D1002840F04E84059A002A40F04A840029DF
:4033C00041D14E2B20D007DC492B0AD03BE000BFB05D00000000F07F692B02D06E2B13D031E0AA4917A801F013FD60B3179BA849013B17A8179301F00BFD10B9179B013322
:403400001793DFF8A8921AE0A24917A801F000FDC8B1179B1B78282B0FD11AAA9E4917A801F009FD052808D11B9BDDF8688043F0FF4949F4E00900F00CBCDFF874924FF0FF
:40344000000800F006BC139B1794002B00F00C8400230C93FFE32C46BBF1000F08BFAB460498102DA8BF1024B71AFEF7B5FA092C8046894613DD894B03EBC40353E9122368
:40348000FEF720FB804602988946FEF7A5FA02460B4640464946FEF763F9804689460F2D33DC002F00F0D58322DD162F07DC7B4D424605EBC7014B46D1E9000113E0C5F1BF
:4034C00025039F4221DC754CC5F10F0504EBC5017D1B4246D1E900014B4604EBC504FEF7F1FAD4E90023FEF7EDFA80468946B0E317F1160F09DB694D4046A5EBC703D3E93B
:4035000000234946FEF708FCEFE72C1B3C44002C5DDD14F00F010AD0604B424603EBC101D1E900014B46FEF7CDFA8046894634F00F0400F0C180B4F59A7F0FDD4FF0000B0F
:40354000CDF808B0CDF814B0CDF810B02223CAF80030DFF858914FF0000889E14046494600234F4E24110293012C0CDDE20704D5D6E90023FEF7A6FA0123029A64100132C3
:4035800002920836F0E70BB180468946444B029AA9F1547903EBC201D1E9000142464B46FEF790FA21F0004389460A461B0D3D491B058B428046C1D8A1F580118B4286BFD5
:4035C000DFF8F0904FF0FF3802F1547974E073D0644214F00F020AD0304B404603EBC2034946D3E90023FEF797FB80468946241162D01F2C08DD4FF0000BCDF808B0CDF8B1
:4036000014B0CDF810B02CE14046494614F0100F0CBF00236A23244E03930023002C09DDE20704D5D6E90023FEF74CFA012364100836F3E70BB180468946039BEBB1C9F36E
:403640000A53C3F16B03002B494616DD1F2B0EDD342BDEBF203B4FF0FF3202FA03F34FF00008CCBF4FF05C7903EA010905E04FF0FF3202FA03F303EA080800220023404644
:403680004946FEF787FC0028B5D117E06B5D0000F35D0000735D00009C5D0000085E0000E05E00000000A07CC85D00000000F07F0000F8FFFFFFEF7F00230393049B5A46CE
:4036C000009306992B46504601F0E5FC059000283FF434AF002FC7F10003A8BF00230D934FF0000B27EAE7731293CDF808B0059B5046596801F048FC049000283FF426AF11
:40370000059B0C301A6903F10C0102329200FFF703F81AAB019319AB009342464B465046CDE9088901F067FF189000283FF40EAF0121504601F03AFD029000283FF406AF33
:40374000199B0399002BACBF0D9A129A1A9CACBFD618D21AA3EB01032344B14903F1FF33ACBF129A0D9E8B42C4F1360480F28580C91A1F29C8BFAB4D4FF00107D4BF07FA82
:4037800001F3ED1AA4EB0104D9BF0793002507FA05F507973719039BBE4214441C443346A8BF3B46A342A8BF2346002BC2BFFF1AE41AF61A0D9B002B63D1002F7ADC129BC2
:4037C000002B40F08180002C00F38880002E00F38F80049A1899504601F03DFE834600283FF4B4AEC3680024C4600299069301F016FEA04280F28B80069B002B40F00282F4
:40380000B8F1000F40F0FE81C9F31303002B40F0F98129F000431B0D1B05B3F1D66F40F2F181DBF81430002B6CD059460122504601F0A4FD0299834601F0F1FD002840F343
:40384000E18129F00043039A1B0D1B05002A00F08D80B3F1D66F00F38980B3F15C7F00F3D38122234FF000084FF00009CAF80030059B002B40F0D981EBE101230025079309
:4038800088E71A460299504601F02AFD029000283FF45CAE0146189A504601F090FC069000283FF453AE1899504601F0A2FB069B189382E73A461899504601F05FFD1890B5
:4038C00000287FF47CAF41E6129A0499504601F007FD049000287FF476AF37E622460499504601F04BFD049000287FF46FAF2DE632460299504601F041FD029000287FF45D
:4039000068AF23E6DBF81030012B8EDC7AE161D1069AC9F3130322B343494A468B422ED1039B414663B1414B1340B3F1D46F07D81B0DC3F16B034FF0FF3000FA03F301E09B
:403940004FF0FF338B421AD139498A4202D101333FF4FCAD354B4FF00008134003F5801950E163B9B8F1000F09D16AE7A3F580136FEA13594FF0FF386FEA095942E115B108
:4039800015EA090F02E0079B13EA080F00F03A81069B039A4046494653B1FFF76DFB02460B46DDE90801FDF7DBFE8046894629E1FFF762FB02460B46DDE90801FDF7CEFEA9
:4039C0000022002380468946FEF7E4FA00287FF448AF17E10299584601F05BFE00224FF0804306460F46FEF7E9FA00283FD0069B13B100260F4F10E0B8F1000F03D1C9F318
:403A000013033BB91AE0B8F1010F03D1B9F1000F3FF427AF084F00260024064D3CE000BF02FCFFFFE2FBFFFFFFFF0F000000F07FFFFFEF7F0000F03F0000F0BF00229A4BC0
:403A400030463946FEF7B0FA40B90022974B30463946FEF737F804460D4601E0069C934D05F1004314941593DDE9146714E08F4B002230463946FEF725F8069B04460D469D
:403A800023B901F100430E900F9303E002460B46CDE90E23DDE90E6729F000431B0D1B050793079A824B9A422BD1DDE90823A9F1547940464946CDE90A2301F02BFD0246E2
:403AC0000B4630463946FDF7FDFF42464B46FDF747FE21F000431B0D764A1B05934280460CD9754B0B9A9A4203D10A9B01333FF42DADDFF8C4914FF0FF3872E001F15479B4
:403B000039E0039B3BB3079BB3F1D46F23D85EA3D3E9002320462946FEF750FAB8B12946204602F0BBF8002808BF0120FDF754FF069B04460D4623B901F10043109011939B
:403B400003E002460B46CDE91023DDE91067079A07F1D6639F1ADDE9080101F0DBFC02460B4630463946FDF7ADFFDDE90823FDF7F7FD80468946039B9BBB29F000431B0D6D
:403B8000079A1B059A424E462BD12946204602F05DF8FDF731FF0B46024629462046FDF7DDFD069B04460D462BB9B8F1000F02D1C9F313067EB136A3D3E90023204629461E
:403BC000FEF7F2F988BB34A3D3E9002320462946FEF708FA04E032A3D3E90023FEF7E4F918BB1899504601F004FA0499504601F000FA0299504601F0FCF95946504601F052
:403C0000F8F974E5039B83B12C4B40460B9300230A934946DDE90A23FDF754FF8046894619B910B92223CAF800301899504601F0E0F90499504601F0DCF90299504601F0B1
:403C4000D8F90599504601F0D4F95946504601F0D0F9139B13B1179B139A13600C9B1BB1424609F1004307E042464B4604E000252A460121FFF747BB104619461DB0BDE85C
:403C8000F08F00BFAFF300800000C0FFFFFFDF419535A094FFFFDF3F35E5AF350000E03F9535A094FFFFCF3F0000F03F0000E03F0000E07FFFFF9F7CFFFFEF7F00005039CB
:403CC000024B0A4601461868FFF7FAB96C81FF1F2DE9F74F03690C6980469C427FDC013C01F114074FEA840E00F1140606EB0E0357F82450019356F824300135B3FBF5F587
:403D000007EB0E09C5B34FF0000A3846B446D34650F8043B9AB205FB02A21B0C4FEA124A05FB03A392B2C2EB0B0BBCF800204FEA134A5A441FFA83FBDCF800308145CBEB29
:403D4000134303EB224392B242EA03424FEA234B4CF8042BDCD256F80E306BB9019B043B9E421A4602D3C8F8104005E01268043B002AF8D1013CF3E7404601F050FB0028DB
:403D80002BDB304601354FF0000E57F8042B036891B2C1EB0E0E120C99B27144C2EB134303EB214389B24FEA234EB94541EA034340F8043BE9D256F8242006EB840362B9F2
:403DC000043B9E421A4602D3C8F8104005E01268043B002AF8D1013CF3E7284600E0002003B0BDE8F08F00002DE9F04F456A95B08246219CCDE9022345B9102001F0AEF804
:403E0000CAF82400456085600560C560DAF82430196859B15A68012393404A608B60504601F0E7F8DAF8243000221A60039BA04A002BBDBF01232360039B0023BCBF23F03C
:403E400000430393DDF80C80A8BF236028F000431B0D1B0593421DD142F20F73209A1360029B43B9934A944BC8F31300002814BF1846104600E09048229B002B00F04685A8
:403E8000C37813B100F1080300E0C31C229A136000F03CBDDDE902450022002320462946FEF778F8074658B1209A01231360229B002B00F01E8581481860013800F026BD35
:403EC00012AB019313AB009322462B46504601F092FBC8F30A56049056B1C5F3130343F07F51204641F44011A6F2FF3611971DE0139B129E1E4406F23243202B0ADD029A53
:403F000006F21240C3F1400322FA00F008FA03F3184304E0C3F12000029B03FA00F0FDF75BFD0123A1F1F871013E11930022644BFDF714FC58A3D3E90023FDF7C3FD58A3F3
:403F4000D3E90023FDF70CFC044630460D46FDF753FD55A3D3E90023FDF7B4FD02460B4620462946FDF7FCFB04460D4601F06EFE00228346002320462946FEF715F858B152
:403F80005846FDF739FD02460B4620462946FEF701F808B90BF1FF3BBBF1160F0DD8DDE90223484901EBCB01D1E90001FEF71AF830B10BF1FF3B002300E00123109300E079
:403FC0001090129B9E1B731E079343BFC3F10008002307934FF00008BBF1000F06DB079BCDF82CB05B440793002705E00023CBEB0808CBF100070B931E9B092B28D8052B43
:40400000C4BF043B1E931E9BC8BF0025A3F10203D8BF0125032B20D8DFE803F0060E0204012302E0012308E000230A931F9B002B1DDD9946059321E000230A931F9B0BEBBF
:40404000030909F10103012B0593B8BF012315E0012500231E930A9501E001230A934FF0FF390022CDF8149012231F9206E04FF001094B46CDF81490CDF87C90DAF824408F
:4040800000226260042101F114029A421CD86268490001326260F6E761436F63A787D23FB3C8608B288AC63FFB799F501344D33F0000F07FF05D0000F95D0000775D0000B6
:4040C0000000F83F085E00006168504600F05CFFDAF8243020601B680693059B0E2B00F25B81002D00F05881DDE90234BBF1000FCDE90E3430DD9F4A0BF00F034FEA2B15EF
:4041000002EBC303E80618CBCDE908340CD5DDE90E01994B05F00F05D3E90823FDF7FCFD0324CDE9020100E00224934E6DB1E90708D5DDE90801D6E90023FDF7C3FCCDE9C6
:40414000080101346D100836F0E7DDE90823DDE90201FDF7E1FD20E0CBF1000505B3DDE90E01844B05F00F0203EBC203D3E90023FDF7A8FCCDE902017F4E2D110023022489
:4041800055B1EA0705D5D6E90023FDF79BFC013401236D100836F3E71BB1CDE9020100E00224109BE3B1DDE902560022734B28463146FDF7F9FE98B1059B8BB1B9F1000F5D
:4041C00040F3E6800BF1FF330893314600226C4B2846FDF777FC0134CDE902014E4602E0059ECDF820B02046FDF706FCDDE90223FDF768FC634B0022FDF7B2FAA1F1507338
:4042000004460C931D46D6B9DDE9020100225E4BFDF7A4FA22460C9BCDE90201FDF7E2FE002840F03F820C99224601F10043DDE90201FDF7B9FE002840F02B82A8E00A9AE1
:404240004C4B711E002A49D003EBC103D3E9002300204E49FDF760FD22462B46FDF77EFACDE90C01069CDDE9020101F0EFFC0546FDF7C2FB02460B46DDE90201FDF76EFA33
:40428000DDE90C23303504F8015BCDE90201FDF78BFE002840F01D83DDE9022300203749FDF75CFADDE90C23FDF77EFE002840F0D180069BE31AB3426ADADDE90C0100226F
:4042C0002F4BFDF7FFFB0022CDE90C01DDE902012B4BFDF7F7FBCDE90201C4E703EBC1012246D1E900012B46FDF7ECFB069BCDE90C011D469C19DDE9020101F0A7FC0646A4
:40430000FDF77AFB02460B46DDE90201FDF726FA303605F8016BAC42CDE902014FF0000222D11A4BDDE90C01FDF71AFA02460B46DDE90201FDF756FE002840F08B80DDE9E1
:404340000C2300201149FDF709FA02460B46DDE90201FDF729FED8B114F8013C621E302B40F0B7821446F7E7054BFDF7ABFBCDE90201C0E7085E0000E05E00000000F03FB5
:404380000000244000001C40000014400000E03FDDE90E34CDE90234139B002B7CDBBBF10E0F79DCAB4B03EBCB03D3E900671F9B002B14DA059B002B11DC40F06C810022E9
:4043C000A54B30463946FDF77DFBDDE90223FDF7FFFD059D2E46002840F05F8165E1069CDDE9028932463B4640464946FDF794FC01F02CFC0546FDF7FFFA32463B46FDF73A
:4044000061FB0B46024649464046FDF7A7F905F1300E069B04F801EBC3EB040E059B73452DD102460B46FDF79BF98046894602460B4630463946FDF7B7FD78B942464B46D5
:4044400030463946FDF7A6FD002800F04482EB0704D440E2DDF820B000E01C4614F8012C631E392A07D1069A9A42F6D1069930220BF1010B0A701A7801321A702BE20022D6
:40448000764BFDF71FFB0022002380468946FDF781FD0028A6D01EE20A9A002A2BD01E9A012A0ADC119A12B103F2334302E0129BC3F136033D46444613E0059B5D1EAF4250
:4044C000BFBF0B9BEA1B9B180B93059BB6BF2F467D1B0025002BA7BF4446059BC3EB08040023079A01211A4450469844079200F05DFE064602E03D4644460A9E5CB1079B5A
:40450000002B08DDA342A8BF2346079AC3EB0808E41AD31A0793002F1DDD0A9BABB18DB131462A46504600F0DBFE049A01460646504600F044FE04990890504600F059FD1A
:40454000089B04937A1B06D000E03A460499504600F0C6FE04900121504600F027FE0B9B05465BB31A460146504600F0B9FE1E9B0546012B18DC029B83B9039BC3F31303A4
:4045800073B9039B23F000473F0D3F054FB1079B08F1010801330793012702E0002700E0029F0B9B73B100E000272B6905EB8303186900F0AEFDC0F1200004E01E9B012B92
:4045C000D9DD0B9F0120079B184410F01F0008D0C0F12003042B02DDC0F11C0002E006D018461C30079B8044034404440793B8F1000F05DD42460499504600F0BFFE04900F
:40460000079B002B05DD29461A46504600F0B6FE0546109B23B32946049800F000FF00281EDA00230A220499504600F0F9FC0A9B0BF1FF3B0490002B00F05F813146002371
:404640000A22504600F0ECFCB9F1000F06463FDC3BE000BF085E00000000144000002440059B002B2BDC1E9B022B28DDDDF81490B9F1000F11D129464B460522504600F00A
:40468000CFFC01460546049800F0C9FE00280CDC03E0354600E000252E461F9B069C6FEA030B09E03546DDF820B0069B069A5C1C312313700BF1010B05960026F7E00A9BC2
:4046C000DDF8149023B9069CB2E01E9B022BCFDC002C05DD31462246504600F04FFE06469FB17168504600F04FFC0446326906F10C01023292000C30FEF70EF8012221462A
:40470000504600F03BFE059000E00596029B069F03F00103079329460498FFF7D9FA3146044600F13008049800F079FE059A02902946504600F08FFEC36802463BB90146B5
:404740000A90049800F06BFE0A9A034600E00123114650460A9300F04CFC0A9B53B91E9A42B9079A32B9B8F1390F2AD0029B002B1CDC1DE0029A002A04DB1BD11E9ACAB993
:40478000079ABAB9002B13DD01220499504600F0F5FD2946049000F042FE002803DC07D118F0010F04D0B8F1390F0AD004F131087C1C0CE0002B07F101040BDDB8F1390F16
:4047C00003D139233B70013756E008F1010887F800806CE0069B2746E31A4B4504F8018C3BD000230A220499504600F019FC059B04909E424FF00A024FF0000331465046BF
:4048000004D100F00DFC0646059084E700F008FC002306460A220599504600F001FC059079E700230A220499504600F0F9FB049029460498FFF74CFA069B00F1300804F8B2
:40484000018BE31A4B45ECDB069B0596B9F1010FACBF4B4401331F46002601220499504600F08CFD2946049000F0D9FD002803DC15D118F0010F12D03C4614F8013C621EDF
:40488000392B09D1069B934204D10BF1010B3123069A02E01446F0E70133137007E03C4614F8013C621E302B01D11446F8E72946504600F09EFB059B6BB12EB19E4203D035
:4048C0003146504600F095FB0599504600F091FB01E0DDF820B00499504600F08AFB0023209A23700BF101031360229B1BB11C6001E008480AE0069808E0B9F1000F3FF7D5
:40490000E2AE1E9B022B7FF7DEAEB1E615B0BDE8F08F00BF765D0000F0B506694B11B34200F1140527DA11F01F0105EB860605EB830201D1294616E0141D55F823202B4602
:40494000C1F1200ECA40B44209D2276807FA0EF73A4343F8042B54F8042BCA40F3E71A6052B1043308E0B2420B4605D252F8043B41F8043BF7E72B465B1B9B10036103B958
:404980004361F0BDA0F13003092B01D820380AE0A0F16103052B01D8473804E0A0F14103052B02D82738C0B27047002070472DE9F04F8BB08A4690460693029000F0CAFADF
:4049C00003684FF0000B18460393FEF74DFB039B0190034413F8013C0793DAF8003002331F4613F8010B302802D10BF1010BF7E7FFF7C8FF0446E0B9019A0399384601F06F
:404A0000C3F8002834D1019BF85CFE18FFF7BAFF80B3334618781F46302803F10103F9D0FFF7B0FFB0FA80F534466D094FF0010B01E000252C463A46164630780132FFF7FB
:404A4000A1FF0028F8D1019A0399304601F09CF850B954B9019BF4182246164630780132FFF790FF0028F8D134B1A41BA40003E03E4600E0044601253378502B01D0702B0F
:404A80002AD173782B2B08D02D2B03D0711C4FF0000905E04FF0010901E04FF00009B11C0878FFF76FFF431EDBB2182B14D8A0F1100211F8010FFFF765FF431EDBB2182B76
:404AC00004D80A2303FB0202103AF2E7B9F1000F00D05242144400E03146CAF800102DB1BBF1000F14BF002006207CE12946F31B013B072B02DD01315B10FAE7029800F009
:404B000043FA4FF000090546CB46019B00F1140AC3F10103CDF810A00893B7422FD2731E0593079A16F8013C93420BD0BBF1200F16D1049BC3F8009004334FF000090493A0
:404B4000CB460DE0059B089A13449F42EED81846019A0399099301F017F8099B68B1E5E716F8010CFFF70EFF00F00F0000FA0BF0059B49EA00090BF1040B1E46CDE7049890
:404B800040F8049BCAEB0000801028614701484600F0BFFAD8F80060381AB04226DD871B3946284600F0B7FDC8B17B1E591103F01F024FF001095AF8211009FA02F20A4288
:404BC0000ED04B4502DC4FF0020909E0B91E284600F0A1FD0028F6D04FF0030900E0814639462846FFF798FE3C440CE009DA371A29463A46029800F0C1FB0546E41B00F1FA
:404C0000140A4FF00009D8F808309C4208DD0298294600F0EEF9149A00231360A320E2E0D8F80400844253DA041BA6422EDCD8F80C30022B1AD0032B1CD0012B1DD1A64283
:404C40001BD1012E0BDCD8F80430069A6220136001232B61CAF80030149B1D60C3E0711E284600F058FD0028EDD106E0159B002BE9D002E0159B002BE5D10298294600F01A
:404C8000B8F9149A002313605020ACE0671EB9F1000F06D13FB13946284600F03CFD814601E04FF001097A11012307F01F0703FA07F75AF8223021461F42284618BF49F046
:404CC0000209361BFFF728FE0227D8F8044000E00127B9F1000F00F08180D8F80C30022B0ED0032B10D0012B76D119F0020F73D0DAF8000049EA000919F0010F07D16BE00E
:404D0000159BC3F101031593159B002B64D0D5F810A005F114034FEA8A0903EB090100201A68B2F1FF3F02D001321A6020E043F8040B9942F4D8AB689A4512DB69680298C9
:404D4000013100F021F983462A6905F10C01023292000C30FDF7E0FC2946029800F049F95D462B695A1C2A6105EB830301225A61022F05F1140211D1D8F80030013B9E42C4
:404D800027D17111012306F01F0603FA06F652F821301E420CBF022701271AE02B699A450ADA01212846FFF7B7FDD8F8083001349C423FF72CAF0BE016F01F0608D09144B0
:404DC00059F8040C00F0A5F9C6F12006B042E8DB012747F0200701E047F010073846149B1D60069B1C600BB0BDE8F08FC2F10802920070B5C2F120064368056803FA06F47B
:404E00002C43D340046040F8043F8842F4D370BD30B5036811F8014B01334CB11A78A2F14105192D98BF2032A242F3D0002030BD0360012030BD0B682DE9F04F5E1102EBDA
:404E4000860613F01F0318BF0436351F174600228246A8462C46914685B0D0F800B0019346F8042C00921BF8011F00293CD0084603920291FFF786FD039A00BB02992029CA
:404E800016D8009B9945EEDD444505D2072A03DC41462046FFF7AAFFBC4223D90023A4F1040844F8043CCDF8009044461A46DAE7292948D10BF10103CAF8003014E0013206
:404EC000082A09F1010906DDBC42CCD9002344F8043C0122043C216800F00F0040EA01102060C0E70822BEE7B9F1000F2BD0444505D2072A03DC41462046FFF777FFBC42C0
:404F00000CD93B4654F8042BA54243F8042BF9D2002243F8042B9D42FBD20BE0019B4BB1C3F120024FF0FF33D34056F8042C134046F8043C2B6843B9BD4202D101232B6000
:404F400003E0043DF6E7042000E0052005B0BDE8F08F0000004870477081FF1F024B0146186800F055BC00BF6C81FF1F10B5C9B202449042034605D01C7801308C42F8D16F
:404F8000184610BD002010BD70B5456A04460E463DB91020FFF7E2FF6062456085600560C560656AEB6843B1636ADB6853F8260078B1026843F8262017E021220421204624
:404FC00000F0CBFB636AE860DB68002BECD1002070BD012101FA06F56A1D9200204600F0BCFB0028F3D04660856000230361C36070BD70B5446A06460D463CB91020FFF756
:40500000ADFF7062446084600460C4603DB1736A6A68DB6853F82210296043F8225070BD2DE9F04106460C460D691F4601F1140E0023DEF80000013381B202FB0171000C73
:405040000F0C02FB007089B201EB00419D424FEA10474EF8041BECDCD7B1A3689D4212DB616830460131FFF78FFF8046226904F10C01023292000C30FDF74EFB21463046E1
:40508000FFF7B7FF444604EB850301355F6125612046BDE8F0812DE9F843064615461F46092208330C4693FBF2F3002101229A4202DA52000131FAE73046FFF765FF089BEF
:4050C000092D43614FF00103036111DD04F10908C1462C4419F8013B0146303B0A223046FFF79EFFA145F5D108EB0504083C01E00A3409252D1B63199F4208DD14F8013B85
:405100000146303B0A223046FFF78AFFF3E7BDE8F883030C1B0413B90004102300E0002310F07F4F04BF0002083310F0704F04BF0001043310F0404F04BF800002330028B7
:4051400003DB420003D5581C70471846704720207047036813F007020BD0D90722D49A074BBF5B089B08036003604CBF01200220704799B209B91B0C102213F0FF0F04BF22
:405180001B0A0832190704BF1B090432990704BF9B080232D90702D45B0805D00132036010467047002070472020704710B50C460121FFF7E9FE01224461026110BD2DE996
:4051C000F74F14460A69236988469A42BEBF0B46A0461C46D8F81070D4F81090D8F80830D8F8041007EB09069E42C8BF0131FFF7CBFE00F114052B4605EB860C0022634588
:4052000002D243F8042BFAE704F1140208F1140102EB890301EB87070093009B0192934257D9B2F800B0BBF1000F23D08946AE464FF0000859F8044BBEF800A0A3B20BFB1A
:4052400003A34FEA144ADEF8004043444FEA14480BFB0A84F24604EB13449BB243EA04434F454FEA14484AF8043B01D9D646E1E7CEF80480019B0432B3F802A0BAF1000F61
:4052800021D02C4689462B684FF00008B9F800E0B4F802B09BB20AFB0EBEA346F04443EA08434BF8043B59F8043BB4F804E01B0C0AFB03E34F4503EB18434FEA134801D941
:4052C0005C46E3E763600435A7E75CF8043D13B9013E002EF9DC066103B0BDE8F08F00002DE9F843154612F0030206460F4607D0214C013A002354F82220FFF791FE074681
:40530000AD1036D0746A3CB91020FFF727FE7062446084600460C460D6F82480D8F808404CB940F271213046FFF740FF04460023C8F8080003604FF00008EB070AD539467D
:4053400022463046FFF73BFF814639463046FFF750FE4F466D100CD0206808B10446ECE7224621463046FFF72AFF2060C0F80080F4E73846BDE8F883D05E00002DE9F047C3
:405380000C460746914626694FEA621A56444968A368751CAB4202DA01315B00FAE73846FFF7F2FD002380461A4600F11401534503DA41F823200133F9E72AEAEA73206964
:4053C00001EB830319F01F0904F1140101EB800E14D0C9F1200C002208689A4600FA09F0024343F8042B51F8042B8E4522FA0CF2F2D8CAF8042042B1B51C06E0043B51F861
:40540000042B8E4543F8042FF9D8013D3846C8F810502146FFF7EDFD4046BDE8F08703690A6910B59B1A11D192001430143183180A4453F8044D52F8041D8C4202D007D3A6
:40544000012010BD9842F4D3002010BD184610BD4FF0FF3010BD2DE9F8430C460746114620461546FFF7DBFF061E08D131463846FFF78AFD012303614661BDE8F883BCBF39
:4054800023462C4638466168BABF1D4601260026FFF77AFD2B69C660266905F1140904F1140101EB860709EB830800F114054FF0000C51F8042B59F8044B93B29C44A3B2EF
:4054C000240CC3EB0C03C4EB124202EB23429BB24FEA224CC84543EA02428E4645F8042BE7D8BE450ED25EF8041B8AB26244131403EB114392B242EA03424FEA234C45F8BC
:40550000042BEEE755F8043D0BB9013EFAE70661BDE8F883104B0B40A3F15073002B02DD0020194670475B421B15132B4FF000004FF0000104DC4FF4002242FA03F170477B
:40554000143B1E2B4FF00102CEBF1346C3F11F0302FA03F3184670470000F07FF8B5056900F1140606EB850555F8044C2F1F2046FFF7CFFDC0F120030A280B6014DCC0F159
:405580000B0E24FA0EF1BE4241F07F5334BF55F8081C0021153004FA00F021FA0EF143F4401340EA010223E0BE423ABFA5F1080755F8081C00210B3815D08440C0F1200534
:4055C00044F07F5444F44014B74221FA05FE44EA0E038CBF57F8044C002401FA00F0EC4040EA040204E00A4644F07F5343F4401310461946F8BD2DE9F3411C46012190469B
:40560000089E099DFFF7C0FCC4F31302C4F30A5407460CB142F480120192B8F1000F19D002A840F8088DFFF794FD009B48B1019AC0F1200102FA01F10B43C2407B610192D9
:4056400000E07B61019B002B14BF02210121BB61396107E001A8FFF77CFD019B01217B613961203034B1A4F2334404443460C0F1350009E0A0F2324007EB8103306018692E
:40568000FFF747FDC0EB41102860384602B0BDE8F0812DE9F743884669468146FFF75EFF0D46044601A94046FFF758FF0F460646D9F81030D8F8102020469A1A9DE80A008A
:4056C000C91A01EB4213002BCCBF05EB0355A7EB035732463B462946FCF71EFB03B0BDE8F083013910B549111469013102F1140300EB810103EB8404A342024604D253F81A
:40570000042B40F8042BF7E700238A4202D242F8043BFAE710BD00F1140200694B11984210B50CDB0CDD11F01F0109D052F8234024FA01F000FA01F18C420CD100E003465A
:4057400002EB8303934204D953F8041D0029F9D001E0002010BD012010BD38B502FB01F4214600F055F8054618B122460021FCF7DEFF284638BD000038B50546002944D022
:4057800051F8043C0C1F002BB8BFE41800F02CFA1E4A1368114613B96360146030E0A3420DD92268A018834201BF18685B681218226063600C6023E0A24203D813465A68A7
:4057C000002AF9D118681918A1420BD12168014458188242196013D110685268014419605A600DE002D90C232B6009E021686018824201BF106852680918216062605C60FA
:405800002846BDE8384000F0F0B938BDEC81FF1F70B5CD1C25F0030508350C2D38BF0C25002D064601DBA94202D90C23336046E000F0DAF9234B1C681A462146A1B10B68B7
:405840005B1B0ED40B2B03D90B60CC18CD501EE08C420BBF63684B681360636018BF0C4615E00C464968E9E7174C23681BB9304600F07AF920602946304600F075F9431C5A
:4058800018D0C41C24F00304A0420DD12560304600F0ABF904F10B00231D20F00700C31A0ED05A42E25070BD211A304600F05CF90130EBD10C233360304600F096F90020EF
:4058C00070BD00BFEC81FF1FE881FF1F2DE9F0478E6882469E420C46914698463ED88A8912F4906F3AD02568096902236F1A656905EB450595FBF3F57B1C43449D4238BF5F
:405900001D4653050FD52946FFF782FF064698B13A462169FCF700FFA38923F4906343F08003A38113E02A4600F060F9064670B921695046FFF720FF0C23CAF80030A3899E
:405940004FF0FF3043F04003A381BDE8F08726613E44266046466561ED1BA560464528BF464649463246206800F023F9A36800209B1BA36023681E442660BDE8F087000009
:405980002DE9F04F9DB003938B8980461C060D4616460DD50B695BB94021FFF739FF2860286118B90C23C8F80030CDE040236B610023099320238DF82930DFF89CB13023D7
:4059C0008DF82A3037463C4614F8013B1BB9B7EB060910D003E0252BF9D02746F3E74B46324629464046FFF771FF013000F0A780099B4B4409933B78002B00F0A08000234D
:405A00004FF0FF3204930793059206938DF853301A930126052221784E48FFF7A7FA671C049B38B14B4A3C46801A06FA00F018430490EFE7D90644BF20228DF853201A071E
:405A400044BF2B228DF8532022782A2A03D0079A00210A200BE0039A111D12680391002A10DA524243F00200079204900BE027463B780134303B092B03D800FB0232012158
:405A8000F5E701B107923B782E2B1ED17B782A2B0AD1039B02371A1D1B680392002BB8BF4FF0FF33059310E0002319460593781C0A2407463A780130303A092A03D804FB5D
:405AC00001210123F5E703B10591032239782248FFF74CFA40B14023CBEB000003FA00F0049B013718430490397806221B487E1C8DF82810FFF73AFA88B1194B33B9039B1D
:405B0000073323F007030833039314E003AB00932A46144B04A94046FCF7A2FE07E003AB00932A460F4B04A94046FDF753F9B0F1FF3F824603D0099B5344099342E7AB8960
:405B40005B0601D4099801E04FF0FF301DB0BDE8F08F00BF085F00000E5F0000125F000061280000CD58000038B5064C0023054608462360FAF760FE431C02D1236803B11E
:405B80002B6038BD3082FF1F30B582B1451E013915F8013F11F8014FA34206D1EC431444E04201D0002BF3D11C46181B30BD104630BD884210B501EB020301D8421E0BE0AC
:405BC0009842FBD28118D21AD34204D013F8014D01F8014DF8E710BD994204D011F8014B02F8014FF8E710BD70477047F8B5074615460E4621B91146BDE8F840FFF708BE69
:405C00001AB9FFF7B9FD2846F8BD00F015F885420ED929463846FFF7FBFD044650B131462A46FCF779FD31463846FFF7A5FD01E03046F8BD2046F8BD51F8040C0028BEBFEF
:405C4000091851F8043CC018043870474FEA410212F5001215D211D56FF47873B3EB625212D94FEAC12343F0004343EA505311F0004F23FA02F018BF404270474FF00000B1
:405C8000704750EA013005D111F0004008BF6FF0004070474FF00000704700BF4A0011D212F5001211D20DD56FF47873B3EB62520ED44FEAC12343F0004343EA505323FACC
:405CC00002F070474FF00000704750EA013002D14FF0FF3070474FF00000704700000000446174612052656369657665643A2025730A000056616C75652052656369657674
:405D000065643A20252E32660A000000004F00401800005100401000305100404000F0510040100000000140001000140140800400190140000300400140000A004C0140D2
:405D4000000200500140200060520040040E00480600801801400C0E0048800073717274000000004300494E4600696E66004E414E006E616E003000303132333435363756
:405D80003839414243444546003031323334353637383961626364656600000034000000CEFBFFFFCB030000010000000000000035000000CEFBFFFFCB03000001000000E6
:405DC0000000000000000000BC89D897B2D29C3C33A7A8D523F649393DA7F444FD0FA5329D978CCF08BA5B25436FAC6428066811496E66696E697479004E614E00504F532F
:405E00004958002E00000000000000000000F03F000000000000244000000000000059400000000000408F40000000000088C34000000000006AF8400000000080842E41B8
:405E400000000000D01263410000000084D797410000000065CDCD41000000205FA00242000000E876483742000000A2941A6D42000040E59C30A2420000901EC4BCD6428D
:405E800000003426F56B0C430080E03779C3414300A0D8855734764300C84E676DC1AB43003D9160E458E143408CB5781DAF154450EFE2D6E41A4B4492D54D06CFF080443B
:405EC000F64AE1C7022DB544B49DD9794378EA4405000000190000007D000000000000000080E03779C34143176E05B5B5B89346F5F93FE9034F384D321D30F94877825A8F
:405F00003CBF737FDD4F1575232D302B2000686C4C0065666745464700000000F8B500BFF8BC08BC9E4670474D000000B5080000F8B500BFF8BC08BC9E467047290000009E
:405F4000505F0000C880FF1FE000000090000000000000000060EA4700C073466F12033B41D2673DC60AB73F5BDACC390000FA444980C73F650B773A0050C3463882FF1FBD
:405F80000000E02EC05D00001800000000366E01010000000000000000000000000000000000000000000000000000000000000000000000645D0000000000000000000037
:405FC000000000000000000000000000000000000000000000000000000000000000000000000000000000000000000000000000000000000C81FF1F035E00000D5F000029
:406000000D5F00000D5F00000D5F00000D5F00000D5F00000D5F00000D5F00000D5F0000FFFFFFFFFFFFFFFFFFFFFFFFFFFF0000000000000000000000000000000000000E
:406040000000000000000000000000000000000000000000000000000000000000000000000000000000000000000000000000000000000000000000000000000000000020
:4060800000000000000000000000000000000000000000000000000000000000000000000000000000000000000000000000000000000000000000000000000000000000E0
:4060C00000000000000000000000000000000000000000000000000000000000000000000000000000000000000000000000000000000000000000000000000000000000A0
:40610000000000000000000000000000000000000000000000000000000000000000000000000000000000000000000000000000000000000000000000000000000000005F
:020000040003F7
:0200000480007A
:40000000024F00400152004007640040046500405B0201403F030140690401404A050140380601404507014057080140440901404C0A0140470B0140530C0140470D014050
:400040004A0E0140340F0140681401404815014061160140401701401F180140481901404C1A0140411B014004400140044101400C42014008430140044401400C45014019
:40008000074601400448014003490140044C0140094D014008500140015101400A4B164B1184836F866F880F890F8B0F8D388E72840F870D89388A720401050C090A0F0167
:4000C00012011D06250C30013501370E39803E014063410549FF4AFF4BFF4DA04F015018580459045A045F016040628064406540668068406A806C406D206E808430860869
:40010000882C8A108D0A93019430950A9604970499019A3C9D089E01A01CA602A820AA04AD04B102B201B304B43CB508B602B701B922BF54C062C105C503C6C2C74EC83DF5
:40014000C9FFCAFFCBFFCDAFCE07CF01D018D40FD804D904DA04DB04DF05E040E280E440E540E680E840EA80EC40ED20EE8000200320040809240B020F801024128019403D
:400180001A201B201E8020402110224423082408268029402F2031063290368039803C283D083F8041104708482849044B404C084D104F40514A5250530158015A98610843
:4001C00062107A8088108A808B408D408E10A010AC10C026C217C40ECA48CC1FCE78D044D23CD60FD806DE01E210EA08040106020E100F02100211081201141019021A10F0
:400200001C011E06230129022C012E0A2F0C300331043204330234103508360837013A023E103F144054410649FF4AFF4BFF4DA04F015018580459045A045F016040628093
:4002400064406540668068406A806C406D206E8085A3875C881C89FE8A028B0190089211941B9604981C9A019B019D7FA007A5C5A620A73AA810A90EAA0FABF0AD96AF68E8
:40028000B230B40FB5FFBF10C054C106C530C6C4C72EC83EC9FFCAFFCBFFCDAFCE07CF01D018D804D904DA04DF01E040E280E440E540E680E840EA80EC40ED20EE8000403C
:4002C0000108060808180A610E440F1012021484170819191A411B021C081E20214222042304270828082A412C042E042F22301031023480369038403C283E083F10410147
:400300004280468049804A084B204D804E4856255740812184018704880490489220951098149A409C01A010A2C2A320A404A520A740AA02AC04AF20C045C27FC471CA7D92
:40034000CC35CE68D081D23CE00CE404E608EA09EC08020104080C0116031E0822042C0430023201340836043E545280540F58045B045F058201840485028A048B028C0291
:400380008D04910492019410950198019B049C029D01A018A101A404A702A908AA08AC18B004B101B202B30CB418B502B601B828B90ABE51BF11D280D804D904DB04DC2089
:4003C000DF0100100211038004440780084809020A080C400E20100511461240132014801580181019861A041C401E0A1F0420202121288429042A012D102F04304131087B
:4004000032403320380839043A503B205D205E8A6624710277807E0880808160900891809280951297209A259D80A101A250A901B204B510C0BFC2AFC49FCA07CC0FCE0E4C
:40044000D6F0D860DE20E604EA02EE01030C070309010B060F1011101510190C1A021B031F082101230E24012B102F103401350F360237103B203E103F404034410145E0AF
:4004800046EC47B0482E49FF4AFF4BFF4EF04F44500C5401580459045A045B045C205D335F0166C06A406B0287208D2C8F11930394019530970C9B209D14A110A51CA722E7
:4004C000A909AB10B11FB201B520BE04BF10C032C104C50CC6EBC80DC9FFCAFFCBFFCEF0CF44D00CD401D804D904DA04DB04DC20DD22DF01E6C0EA40EB020B200E0416104A
:4005000019041D401E0821232650284429082A012E802F4430B03102330834413610370438443B843D013E203F8440444220430844014680478448304D0250805310561033
:4005400057C1581059045A405B025C205D025E888040904093089420950197049B849D089E81A208A308A410A741AB08AD40B210B540C244C420CAB7CCFFCEFAD0D7D6FF31
:40058000E8C001090310044A05800624080309800A040D400E40100312641403151C162C172218101B031D80212C2248231125302625270C29102D143068320F3380341005
:4005C000351F376039803A0A3B023E10580459045C325F01823583068A80900392049518970598139A6C9B029D189EC89F03A8CAA916AA34AB01AC13AEE4AF09B107B2F0FC
:40060000B318B40FB988BA28BB02BF44D40FD604D804D904DB04DC33DF0100200108020104200510068009200A600E080F81110113041404178018481A601B081E081F04C3
:4006400021202351254026082780284029142B012C042E802F04300431203240344035143604378439143A803B013F015C085D425E206602800482208602880291149280A5
:400680009750980899029C029E20A840AE02AF0CB320B748C057C2DEC4CCCA3FCC7ECE8FD6F0D880E028E4050201040808020A040C020E04140E1504170219021A0E1B0494
:4006C000200E29022A102B042D022E082F0530013301341E35063B20580459045F01810A83D1851F8604891F8A088E019514974999019B269E02A202AA08B004B180B201F1
:40070000B318B402B507B608B760BE50BF40C026C105C203C401C60EC70CC814C9FFCAFFCBFFCC62CDA0CEF0CF41D00CD418D604D804D904DA04DB04DC30DD33DF01E640E3
:40074000E702E910EA30EB10ED10EE10EF120030020103200622074809800E2810081280140216801710188019501B081E081F1120012109221427282F0931083210372821
:400780003802391440154B505008518059016080615078087A108A108B108C808E0190069114928095029628977899039A809B109C029E209F08A010A280A610AF02B401D1
:4007C000B540B704C0F7C261C4DACA30CC66CE07D00ED20CD601D80DE080E230030404F30518060C081F0AE00B230C410D3C0F4210FF14C3151C1761188219671B181C1C7F
:400800001D101EE320082404250829042AE32C0C2D7F30C0311F322C3338340F3610374039803A283B023E4056025710580459045B045C335D305F01800F8405860A89305C
:400840008BC991CF93309407959497609973A403A60CA70FA80AA99EAA05AB60AC0CADFDAE03AF02B00FB3FFBF04D804D904DF01000401400308050206A008010A2A0B4062
:400880000E2010A01202131014061708180419511B081F0220602281271028012A082B042C042E802F16308031103308340236103708384839023B103E20594069146A80CE
:4008C00070A47108720889088A02C037C22FC4EFCA7ECCEECE2FD60800FE010202010301040E050106F007420CC50D010E3A0F02147F151819011B061D281E012096226826
:4009000024A32530265C2D3031403338350436FF370339083B803E40404649FF4AFF4BFF4F015018540F5604580459045A045B045D015F016040624064406540668068805B
:400940006A806C806E808007840185CF860287308A048C018D9E8E028F60913093C99407957399949A079B609DFD9F02A004A70FAA08B3FFB40FBF04C046C9FFCAFFCBFFE6
:40098000CD83CE03CF01D018D280D804D904DA04DB04DD11DF01E040E240E440E540E680E880EA80EC80EE800088010203530608075109080A020D080E04128013041722BE
:4009C00019801E041F1020042108228C234327202A082B022F103020310833403608375238043B413C803E083F044280468048084C0859125A486380768083408C208D20D9
:400A00008E4092029304972199109B409D809E809F02A04CA120A508A608AC04AE08AF20C0FDC265C45CCA4ACCFECE5BD081D224D60FD801EA02EE02000B01050204030A58
:400A4000050C070308080A010E0F100C120214071507180C1A011D0F1E102503270C2D0A2F05300F310F3410404649FF4AFF4BFF4D834E034F015018580459045A045D01EB
:400A80005F016040624064406540668068806A806C806E808001811083028401851887048E029204950E98019D169E019F08A301A71EAA04AC01AD18AF02B004B301B51EA5
:400AC000B603BE01C046C5ECC702C813C9FFCAFFCBFFCD83CE03CF01D018D401D804D904DA04DB04DD11DF01E040E240E440E540E680E880EA80EC80EE800008018003406D
:400B00000608074209010B050C410D080F0410091A421B801C841F0222042304274028012A082B822E082F0231083340360837403B053F05428045014680480849054C0836
:400B4000500859055A40940496089720984099109F20A120A508A608A780A912AC08AF20B010B204C0DDC2FBC403CA5BCC5ACEC3D081D224D60BE204EE080C010E061402C9
:400B8000160118011A021C011E022A083203340836043A084006450449FF4A074BFF4C404D204EF04F05500858045A045D035F01604061A86240632000A8010205400922D5
:400BC0000A220D800E24104613081604180419811A201D801E241F082040216022012320280429123040310C3240360437083848390240404108431049804A044C104E08A3
:400C00005006568059016004638182048340910294209604970499409E81A20AA820AB80AD08AE10AF12B004B101B202B520B640C08FC2EFC44FCA05CC0ACE0BD007D22C0B
:400C4000D601D80DE201ECA0007C01610281031005600604089C09200A620C240D71104011041302146015061AE31B101CE71D401E182010211123602408250628182961B2
:400C80002B102CFF2D022F0C3078310632983301341F350837703A223B803F0456025712580459045B045C225D205F018301A401A801AC01B301B401C005C740C9FFCA0775
:400CC000CBFFCC40CD20CEF0CF05D008D804D904DA04DC02DD02DF01E040E1A8E240E32000860120084009020A2410A01350155819371E0C1F20200621022244230127204A
:400D0000286029112A8030883102332038683B413E01402041044E024F0456015A08681C695870B473108141831088408A808F20904091809221968097049D169E019F10A5
:400D4000A202A454A502A604AF0CB201B721C00FC20FC4EFCA0FCC0FCE8FD210D602E001E610300233803712CCF08F029F12A402A780580164018108841087809F10A4021B
:400D8000A780D6C0E010E420E61019081C209D089F10A412AC01C630EA4012807740C408DE0403800710530162088F109F40B680C00CD401D802E602EA028341860897021B
:400DC0009F40A608B380EA0180029F10A402E22083109F10E22009200D408140C2031020772083208820B120C408DE04E604EE01000D08010A050C0D0E09100F1A031C0D0B
:400E000000FF0000A080000050000000C0040000380000023800000048011200A0001200D0002C0200000100C00000010001C0000000C0000000C00100000100C000380203
:400E400001010604002000020000504426040300050000EC30FFFFFF62A0F0410C0000001800040004040404222200010000000000004002001030100010101200000000F1
:400E8000000000000000000000000000A00050A0A000A00000000000C00B0B000000000003FCFC00840000000000000000000000000000000000000000000000000000000D
:400EC00000000000000000000000000000000000000000000000000000000000000000000000000000000000000000000000000000000000000000000000000000000000F2
:400F000000000000000000000000000000000000000000000000000000000000000000000000000000000000000000000000000000000000000000000000000000000000B1
:400F40000000000000000000000000000000000000000000000000000000000000000000000000000000000000000000000000000000000000000000000000000000000071
:400F80000000000000000000000000000000000000000000000000000000000000000000000000000000000000000000000000000000000000000000000000000000000031
:0200000490006A
:0400000000004005B7
:0200000490105A
:04000000BC90ACAF55
:0200000490303A
:0200000084DD9D
:0200000490402A
:4000000000000000000000000000000000000000000000000000000000000000000000000000000000000000000000000000000000000000000000000000000000000000C0
:400040000000000000000000000000000000000000000000000000000000000000000000000000000000000000000000000000000000000000000000000000000000000080
:400080000000000000000000000000000000000000000000000000000000000000000000000000000000000000000000000000000000000000000000000000000000000040
:4000C0000000000000000000000000000000000000000000000000000000000000000000000000000000000000000000000000000000000000000000000000000000000000
