:400000000080002011000000C5040000C504000008B5044B1A6803F53F5302331A6000F071FA00BFFA46004010B5054C237833B9044B13B10448AFF300800123237010BD7A
:400040004881FF1F0000000000130000084B10B51BB108490848AFF300800848036803B910BD074B002BFBD0BDE81040184700BF000000004C81FF1F00130000C880FF1FDC
:4000800000000000F0B591B00021084600F0B8F8642400940023C822782100F08FF805460121002000F0ACF800940023C822782100F084F806460021012000F0A1F80094A0
:4000C000002340F2DC52214600F078F807460121084600F095F800940023B422502100F06DF804460197009603462A461A4903A800F0E2FC03A800F0A7FAB54208D9A54221
:4001000006D9164B93E803000390ADF810101DE0B5420BD2A64209D9114B93E803000390ADF81010090C8DF812100FE0A54208D2A64206D203AB0B4A92E8030083E80300C2
:4001400004E003AB084A07CA83E8070003A800F07BFA11B0F0BD00BF041300003C130000441300004C1300005413000008B500F0D5FB00F043FC08BD00B58FB062B600F02B
:4001800049FA00F02FF8FFF7F1FF01AB054A92E8030083E80300184600F056FAFFF772FFFCE700BF6013000008B500F09BFA024B186001221A7108BD6481FF1F88420CD9D3
:4001C00010B490420BD2401A019CE41A04FB00F0511AB0FBF1F1581802E018467047019810BC704708B500F0C3FA00F027FB00F0F3FA024800F0E2FA08BD00BFA901000090
:4002000038B505460C46012000F054FAE8B200F0E9FAE0B200F0F2FA0024094B1C71052000F032FA204600F045FA054B1B79002BFBD00A2000F028FA014B186838BD00BF89
:400240006481FF1FFEE700BFF0B40022174611E050F82760F3B226F0FF0608E001EB420511F812406D78A5550132013BDBB2002BF4D101371D2FEBD9F0BC7047064B1B7864
:40028000DBB203F00701054A11701B09013213704422034B1A707047CF0100496E5800407658004008B50A46002100F0FCFB08BD38B500242E4B1C80582202331A700B2284
:4002C00002331A8018232B4A13703321023211800232137040F65F11023211800232137045F6BF5102321180023213700222224B1A7008224FF040231A70032103F5007343
:4003000019701E4B1B78DBB21D490B701D4B1A8041F25122023B1A8019250CE01A4B1B7803F0010343EA440404F003044FF4F07000F072FB013D0DB1032CEFD115B90320E6
:40034000FFF780FF114B4FF480721A8007221A7000220F490A704820023108701A700222033B1A700B4A137843F01F03137038BD8040004086400040004300400801004925
:40038000A146004022420040254200400440004006400040A243004008B500F079FB08BD38B572B6364A137843F00403137000240CE0344D630019194A0011462A44084656
:4003C00091882858FFF76EFF0134E4B2082CF0D900240CE02B48A20011194B000344B3F84020D96B986BFFF7D7FF0134E4B2012CF0D925494FF09040FFF726FF234A1378E9
:4004000043F0020313701032137843F0020313701F4C237843F040032370A2F58632513A137843F01003137008221A491A48FFF7B3FF0A2219491A48FFF7AEFF0822194986
:400440001948FFF7A9FF0A2218491948FFF7A4FF184A137843F008031370174D61232B70FFF726FF81232B700122144B1A70FFF705FF0E2221461248FFF78EFF38BD00BF3D
:40048000E8460040681300007800004803500140A04300402C0500480251004034050048C0510040400500481251004048050048205100402243004000480040040008400F
:4004C000B043004008B500F0B7FA03680C2B00D1FEE7FEE708B5094B1A681044084BC31A802B02DC054B186005E000F0A5FA0C2303604FF0FF32104608BD00BFCC80FF1F0C
:400500008081FF1F08B5104E104D16E029686B68AC68002204E051F8040B43F8040B0432A242F8D1E868002203E0002143F8041B04328242F9D11035013E002EE6D100F03E
:4005400081FAFFF719FEFEE7010000001014000008B5104A104B1A60104A136843F40073136000230AE0032B03D80D4A52F8231000E00C490C4A42F8231001332F2BF2D9D0
:400580000A4B1A780A4B1A70074A0A4B1A60FFF707FF08BD0004FA050CED00E014ED00E000000000C50400000080FF1FBC760040C080FF1F08ED00E07222074B1A70202219
:4005C00001331A700622623B1A70472210331A7000224F331A7070478A65004010B500F023FA04460A4A137843F0200313700132137843F010031370033A137843F010033B
:40060000137000F033F8204600F012FA10BD00BF9A65004008B5054B1B7823B9FFF7CCFF0122024B1A70FFF7D9FF08BD6981FF1F034B1B7813F0040FFAD1024B18707047CF
:40064000686500404865004038B5074B1B782BB938BDFFF7EDFF0134A4B201E005460024285D0028F5D138BD6981FF1F054A137843F0040313701032137843F00403137087
:40068000704700BFA243004010B5044605E0084B186800F0C1F9A4F50044B4F5004FF6D8034B586800FB04F000F0B6F910BD00BFD080FF1F014B1870704700BF7264004095
:4006C000014B1870704700BF85640040014B1878704700BF65640040014B1860704700BF02640040024B1B78024B1868704700BF0264004042640040014B1868704700BF5B
:4007000042640040014B1860704700BF22640040014B1860704700BF3264004008B501E0FFF7EAFFFFF7D2FF10F0400FF8D108BD08B5FFF7F3FF6FF00100FFF7E3FF0020A5
:40074000FFF7CAFF0020FFF7BBFFFFF7BFFF0648FFF7DEFF00F068F9044A137843F01003137000F065F908BDFE6BCA889564004008B5044B1B7823B9FFF7DAFF0122014B62
:400780001A7008BD6B81FF1F014B1B681864704708ED00E04001C0B2014B1870704700BF00E400E00122014B1A60704700E100E00122014B1A60704780E100E010B50446F7
:4007C000FFF7F6FF2046FFF7DFFF0720FFF7E2FFFFF7E8FF10BD00BF0122014B1A60704780E200E0044A137803F0EF03000100F0100018431070704700510040044A1378D0
:4008000003F0F703C00000F00800184310707047005100406322014B1A7070478364004008B500F001F9044A137843F02003137000F0FEF808BD00BF9364004008B5054BB0
:400840001B7823B9FFF7E6FF0122024B1A70FFF7E7FF08BD6C81FF1F084A137843F0010313701032137843F00103137002F64D32137843F001031370704700BFA343004012
:40088000014B1880704700BF044F0040014B1880704700BF064F0040014B1870704700BF034F004008B51A4A137843F0020313700232137803F08F0343F010031370154BAC
:4008C0001A7802F0CF021A701A7842F030021A701A7802F0F0021A701A7842F00F021A7049F64040FFF7CCFF40F6B830FFF7CEFF0020FFF7D1FF084A137843F0010313705C
:4009000002F65E32137843F00103137008BD00BF004F00400B4F0040A343004008B5054B1B7823B9FFF7BEFF0122024B1A70FFF793FF08BD6D81FF1F084A137843F0020380
:4009400013701032137843F00203137002F65932137843F001031370704700BFA3430040014B1880704700BF104F0040014B1880704700BF124F0040014B1870704700BFCA
:400980000F4F004008B51A4A137843F0020313700232137803F08F0343F010031370154B1A7802F0CF021A701A7842F030021A701A7802F0F0021A701A7842F00F021A7007
:4009C0004FF6FF70FFF7CCFF40F6B830FFF7CEFF0020FFF7D1FF084A137843F00203137002F66A32137843F00103137008BD00BF0C4F0040174F0040A343004008B5054B52
:400A00001B7823B9FFF7BEFF0122024B1A70FFF793FF08BD6E81FF1F0230800803D000BF01380046FCD17047EFF3108072B6704780F31088704700BF014B1868704700BFDD
:400A40004081FF1F0E4B70B51E460E4C0025E41AA410A54204D056F8253098470135F8E700F0C4FC084B094C1E46E41AA4100025A54204D056F8253098470135F8E770BD20
:400A8000F8130000F8130000F81300000014000010B5431E0A44914204D011F8014B03F8014FF8E710BD03460244934202D003F8011BFAE7704700000EB400B54FF4027188
:400AC0009CB0ADF814106FF00041049107914FF6FF711DAB02900690084853F8042BADF81610006802A9019300F064F8029B00221A701CB05DF804EB03B070474081FF1F45
:400B00002DE9F0478E6882469E420C46914698463ED88A8912F4906F3AD02568096902236F1A656905EB450595FBF3F57B1C43449D4238BF1D4653050FD5294600F040FB31
:400B4000064698B13A462169FFF7A2FFA38923F4906343F08003A38113E02A4600F08EFB064670B92169504600F0DEFA0C23CAF80030A3894FF0FF3043F04003A381BDE8FC
:400B8000F08726613E44266046466561ED1BA560464528BF464649463246206800F0A8FAA36800209B1BA36023681E442660BDE8F08700002DE9F04F9DB003938B8980462C
:400BC0001C060D4616460DD50B695BB9402100F0F7FA2860286118B90C23C8F80030CDE040236B610023099320238DF82930DFF89CB130238DF82A3037463C4614F8013B1E
:400C00001BB9B7EB060910D003E0252BF9D02746F3E74B46324629464046FFF771FF013000F0A780099B4B4409933B78002B00F0A08000234FF0FF320493079305920693AF
:400C40008DF853301A930126052221784E4800F041FA671C049B38B14B4A3C46801A06FA00F018430490EFE7D90644BF20228DF853201A0744BF2B228DF8532022782A2A33
:400C800003D0079A00210A200BE0039A111D12680391002A10DA524243F00200079204900BE027463B780134303B092B03D800FB02320121F5E701B107923B782E2B1ED17A
:400CC0007B782A2B0AD1039B02371A1D1B680392002BB8BF4FF0FF33059310E0002319460593781C0A2407463A780130303A092A03D804FB01210123F5E703B105910322FC
:400D00003978224800F0E6F940B14023CBEB000003FA00F0049B013718430490397806221B487E1C8DF8281000F0D4F988B1194B33B9039B073323F007030833039314E079
:400D400003AB00932A46144B04A94046AFF3008007E003AB00932A460F4B04A9404600F093F8B0F1FF3F824603D0099B5344099342E7AB895B0601D4099801E04FF0FF309A
:400D80001DB0BDE8F08F00BFB6130000BC130000C013000000000000010B00002DE9F04791461F460A698B6806469342B8BF1346C9F8003091F843200C46DDF8208012B1C5
:400DC0000133C9F800302368990642BFD9F800300233C9F80030256815F0060510D104F1190A07E00123524639463046C04701301AD00135E368D9F800209B1A9D42F1DB5A
:400E000094F843302268003318BF012392060FD5E118302081F843005A1C94F845102244023382F8431003E04FF0FF30BDE8F08704F1430239463046C0470130F4D0226899
:400E4000D9F80050E36802F00602042A08BF5D1B2269A3680CBF25EAE57500259342C4BF9B1AED184FF000091A344D4509D00123224639463046C0470130D5D009F101093B
:400E8000F3E70020BDE8F0872DE9F04317460A7E85B06E2A984606460C460C9B01F1430E00F0AE8011D8632A22D009D8002A00F0BB80582A40F0CA8081F84520834955E024
:400EC000642A1ED0692A1CD0C0E0732A00F0B08009D86F2A2ED0702A40F0B8800A6842F020020A603EE0752A24D0782A3AD0ADE01A6801F14205111D1960136884F842303B
:400F0000A8E021681A6811F0800F02D0111D196008E011F0400F02F10401196002D0B2F9003000E01368002B3CDA2D225B4284F8432037E021681A6811F0800F02D0111DA6
:400F4000196007E011F0400F02F10401196001D0138800E01368227E5C496F2A14BF0A2208221BE078225A4984F845202268186812F0800F00F104051D6003D1550601D552
:400F8000038800E00368D00744BF42F0200222601BB9226822F0200222601022002084F8430001E049490A226568002DA56008DB206820F0040020602BB9002D7DD17546CF
:400FC0000CE0002B79D07546B3FBF2F002FB1033CB5C05F8013D03460028F5D1082A0BD12368DA0708D5236962689A42DEBF302305F8013C05F1FF35C5EB0E0323612EE03D
:4010000008681A6810F0800F496903D0101D1860136808E010F0400F02F104001860136801D0198000E0196000232361754616E01A68111D1960156800216268284600F05F
:4010400049F808B1401B6060636804E004F1420584F8422001232361002384F84330CDF800803B4603AA21463046FFF797FE013002D14FF0FF3026E023692A463946304694
:40108000C0470130F5D023689B0710D5002504F1190907E001234A4639463046C0470130E7D00135E368039A9B1A9D42F2DBE068039B9842B8BF184605E00B7804F14205AE
:4010C00084F842308AE705B0BDE8F083C7130000D813000010B5C9B202449042034605D01C7801308C42F8D1184610BD002010BD884210B501EB020301D8421E0BE0984297
:40110000FBD28118D21AD34204D013F8014D01F8014DF8E710BD994204D011F8014B02F8014FF8E710BD000038B50546002944D051F8043C0C1F002BB8BFE41800F0D4F8AB
:401140001E4A1368114613B96360146030E0A3420DD92268A018834201BF18685B681218226063600C6023E0A24203D813465A68002AF9D118681918A1420BD12168014463
:4011800058188242196013D110685268014419605A600DE002D90C232B6009E021686018824201BF106852680918216062605C602846BDE8384000F098B838BD7481FF1FDF
:4011C00070B5CD1C25F0030508350C2D38BF0C25002D064601DBA94202D90C23336046E000F082F8234B1C681A462146A1B10B685B1B0ED40B2B03D90B60CC18CD501EE067
:401200008C420BBF63684B681360636018BF0C4615E00C464968E9E7174C23681BB9304600F052F820602946304600F04DF8431C18D0C41C24F00304A0420DD12560304668
:4012400000F053F804F10B00231D20F00700C31A0ED05A42E25070BD211A304600F034F80130EBD10C233360304600F03EF8002070BD00BF7481FF1F7081FF1FF8B50746E6
:4012800015460E4621B91146BDE8F840FFF798BF1AB9FFF749FF2846F8BD00F027F885420ED929463846FFF78BFF044650B131462A46FFF7EDFB31463846FFF735FF01E0B6
:4012C0003046F8BD2046F8BD38B5064C0023054608462360FFF7FEF8431C02D1236803B12B6038BD7881FF1F7047704751F8040C0028BEBF091851F8043CC0180438704755
:40130000000000007265643A20256C7520202020200920677265656E3A20256C750920626C75653A20256C7520200920636C6561723A20256C752009000000007265642053
:401340000A000000626C7565200A0000677265656E200A006E6F20616E73776572200A0048656C6C6F200A00004F00401800305100404000F05100401000000001400010F7
:40138000001401400006801A0140800100400140000A004C01400002005001402000000060520040A40400480600001A0140AC04004880004300232D302B2000686C4C00C2
:4013C0006566674546470030313233343536373839414243444546003031323334353637383961626364656600000000F8B500BFF8BC08BC9E4670474D00000051050000C3
:40140000F8B500BFF8BC08BC9E4670472900000020140000C880FF1F8000000038000000000000008081FF1F0000E02EC05D00001800000000366E010000000000000000AB
:40144000000000000000000000000000000000000000000000000000B4130000000000000000000000000000000000000000000000000000000000000000000000000000A5
:40148000000000000000000000000000000000000000000000000000E080FF1F000000000000000000000000000000000000000000000000000000000000000000000000AE
:4014C00000000000000000000000000000000000000000000000000000000000000000000000000000000000000000000000000000000000000000000000000000000000EC
:4015000000000000000000000000000000000000000000000000000000000000000000000000000000000000000000000000000000000000000000000000000000000000AB
:40154000000000000000000000000000000000000000000000000000000000000000000000000000000000000000000000000000000000000000000000000000000000006B
:40158000000000000000000000000000000000000000000000000000000000000000000000000000000000000000000000000000000000000000000000000000000000002B
:020000040003F7
:0200000480007A
:40000000044F004002520040026400400365004043020140210301404004014028050140040601400607014002090140010B0140031701406B180140371901400F1A014021
:40004000441B01400240014009410140054201400A4301400244014003450140024601400347014002480140034C01400A4D0140055001400151014001100A1B0D10164B08
:4000800000C00104837F8567880F8A728B3811012901310139023F014061410549FF4AFF4BFF4DA04F01501859045A045B045F016040628064406540668068406A506BA847
:4000C0006C406D206E506FA886029802AB01AC03B201B402B501BE14C024C105C9FFCAFFCBFFCDAFCE07CF01D018D602D728D804D904DA04DB04DD30DE08DF01E040E280D4
:40010000E440E540E680E840EA50EBA8EC40ED20EE50EFA802100920100218141A082120244027802A102F0837014044478049804C014D804E0460106D406F03700272800A
:4001400079408680C004C202C401CA24CC80D015D238D802DE084024410549FF4AFF4BFF4DAF4E074F0150185A045F016040628064406540668068406A506BA86C406D20DF
:400180006E506FA8880196049E03A101AB01B001B301B402B604BE01BF04C061C105C55CC62EC81FC9FFCAFFCBFFCDAFCE07CF01D018D407D804D904DA04DB04DF05E04065
:4001C000E280E440E540E680E840EA50EBA8EC40ED20EE50EFA805100D080F021D101E401F8026042F8840444230478049804C014E044F0654805508562057085E586714F4
:400200007F0290449208940299809B80A302A708A810AE10C040C2A0CAA0D015D238D670D860DE10EC01B808BE04D804DF011B049402B080B310E080EC08E080EC08EC01AC
:40024000B401B704EA40022003150409051306D00704080C09030A710B140C100EAC1113130C1603181419401D0A1F1420DC22222410252026402B083110321F334034E06E
:400280003520370F3A203B803F1540414102450B46C0470E481949FF4AFF4BFF4EF04F44500C5401580459045A045B045C225D225F0166C06A406B0280808102821383154D
:4002C00089E78A0C8C2C8E439544972A987199E79A0E9D80A071A206A521A608A74AB00FB107B2C0B360B430B580B718B828BA02BE10BF40C002C640C9FFCA07CBFFCC40E5
:40030000CD20CEF0CF05D008D804D904DA04DC22DD02DF01E040E1A8E240E3200040010303480516070109100A040E200F08129014801610184419041B081D101E24200A95
:4003400021092684278928202E082F0831083240331034803610370139123D013E143F2040C44510474149024F085210560857105E105F8A880189088E04C0FBC262C43C5E
:40038000CA62CCBECEE5D0B4D6F0820196049A029E01AE02B002B201B604BE05D418D804DB04DC02DD20DF01002802050380040208010A140B800E210F04108012021328B3
:4003C000158019251A151D401F05202421082202230529602A042B80308031143202382839023A013B80400441084280480549105001514059015F01670A69106A806B10C5
:400400007094732888208A948B8091029510968098019C209F10A005B208B302C01FC2EEC48FCA0FCC0FCE0FD007D20CD681D8303020CC100D02530167028420A420C2201D
:40044000D480D680E24067029702AD02D680E8401B011F0460408B049702A701AF01C630D840EC107508DE0452209D08D4049D08AA208B01AD08E001B440B7018D40A3011C
:40048000E00210407B017D4088409140A301C408DC01DE04E201000908090A0110041C0400030000A09000004000000001C00000001823007F08000003800000023900C455
:4004C0001F1960E273000CE6001000000841000004FF00000CE700181C006301101F2C000F3840C08000280A000001004603020005000CE024FFFFFF62A0F0410C00000045
:40050000000002130404040422220001000000000000400200103010001010120000000000000000000000000000000020DCDC00C4000000800040B0B000B0000000000021
:40054000000B0B0000000000040000060200020000000000000000000000000000000000000000000000000000000000000000000000000000000000000000000000000057
:40058000000000000000000000000000000000000000000000000000000000000000000000000000000000000000000000000000000000000000000000000000000000003B
:4005C00000000000000000000000000000000000000000000000000000000000000000000000000000000000000000000000000000000000000000000000000000000000FB
:4006000000000000000000000000000000000000000000000000000000000000000000000000000000000000000000000000000000000000000000000000000000000000BA
:40064000000000000000000000000000000000000000000000000000000000000000000000000000000000000000000000000000000000000000000000000000000000007A
:0200000490006A
:0400000000004005B7
:0200000490105A
:04000000BC90ACAF55
:0200000490303A
:02000000DD78A9
:0200000490402A
:4000000000000000000000000000000000000000000000000000000000000000000000000000000000000000000000000000000000000000000000000000000000000000C0
:400040000000000000000000000000000000000000000000000000000000000000000000000000000000000000000000000000000000000000000000000000000000000080
:400080000000000000000000000000000000000000000000000000000000000000000000000000000000000000000000000000000000000000000000000000000000000040
:4000C0000000000000000000000000000000000000000000000000000000000000000000000000000000000000000000000000000000000000000000000000000000000000
:0200000490501A
:0C00000000012E16106900012E1EEDE11B
:00000001FF